:100000000C9409010C9407260C94E0250C94B92556
:100010000C9492250C9431010C9431010C946B25B5
:100020000C9431010C942E260C9480220C94EF2217
:100030000C9431010C9431010C9431010C94310178
:100040000C9431010C9431010C9431010C94310168
:100050000C9431010C9431010C9431010C94212544
:100060000C9431010C9431010C9431010C94310148
:100070000C9431010C9431010C9431010C94310138
:100080000C9431010C9431010C9431010C94310128
:100090000C94A6260C9431010C9431010C9431017E
:1000A0000C9431010C9431010C94310108000000D2
:1000B000BE922449123EABAAAA2ABECDCCCC4C3E5D
:1000C00000000080BEABAAAAAA3E00000000BF004C
:1000D0000000803F0000000000084178D3BB438748
:1000E000D1133D190E3CC3BD4282AD2B3E68EC825C
:1000F00076BED98FE1A93E4C80EFFFBE01C4FF7FE1
:100100003F0000000000070605040100080A0B0C70
:100110000D0900000000240027002A002D003000F7
:100120000000000200090F0000030401000C0000A1
:1001300000000000000000000000000000000008B7
:100140000B0002020200000904000001020200008C
:1001500005240010010524010101042402060524E0
:100160000600010705810310004009040100020A8E
:10017000000000070502024000000705830240005E
:10018000000403090412010002EF0201404123367A
:100190008000010102030141726475696E6F204C99
:1001A0004C430041726475696E6F204C656F6E61DF
:1001B00072646F00000000002300260029002C005C
:1001C0002F0000000000250028002B002E00310029
:1001D00004040404040304050202020204030202EC
:1001E00002020606060606060404020202040404CD
:1001F0000802011040804010204080408008020426
:100200000180402010020110801020404020C527AE
:10021000893011241FBECFEFDAE0DEBFCDBF26E06C
:10022000AEEAB1E001C01D92A139B207E1F711E0D9
:10023000A0E0B1E0ECE3F8E602C005900D92AE3A22
:10024000B107D9F711E0C8E0D1E004C02197FE0161
:100250000E94E833C730D107C9F70E945F280C9489
:1002600011340C9400008091A3059091A405891B82
:10027000990B089508950895FC0180919E058823A7
:1002800011F13FB7F89482E08093E9002091F200E9
:10029000822F90E01816190614F481E090E088236C
:1002A00039F0289844E640939D054091F100408341
:1002B000222339F02091F200211103C02BE6209374
:1002C000E8003FBF08958FEF9FEF08952FB7F89490
:1002D00083E08093E9009091E800892F807295FF78
:1002E00004C09091F20080E4891B2FBF0895809193
:1002F000950581110DC082E08093910584E0809383
:100300009205109294051092930581E080939505D3
:1003100081E995E008954091F4035091F50320910F
:10032000F2033091F30342175307B4F49091E800BD
:100330009570E1F39091E80092FD19C08093F1006F
:100340008091F4039091F50301968F739927892B7F
:1003500019F48EEF8093E8008091F4039091F503F7
:1003600001969093F5038093F40381E0089580E073
:100370000895EF92FF920F931F93CF93DF93F82E80
:10038000192FE62E042F81E0860F880F0E948B0123
:1003900083E00E948B01CF2DD12FEC0EFD2EF11C9E
:1003A000CE15DF05B9F007FF13C0FE0184910E944E
:1003B0008B01182F80E00E948B01812321968111EF
:1003C000EFCFDF91CF911F910F91FF90EF900895A4
:1003D0008881EDCF81E0F5CFDF92EF92FF920F930E
:1003E0001F93CF93DF93D82E8A01EB017B01E40E9C
:1003F000F51ECE15DF0559F0D7FE12C0FE0184911F
:100400000E948B0121968111F4CF0FEF1FEFC801DD
:10041000DF91CF911F910F91FF90EF90DF900895A2
:100420008881EECF0F931F93CF93DF931F92CDB7A9
:10043000DEB782E0898342E450E06FE371E080E858
:100440000E94EC010E947701DC0112960D911C9133
:100450000115110589F0D801ED91FC910280F3811D
:10046000E02DBE016F5F7F4FC801099597FD04C065
:10047000F80100851185ECCF89810F90DF91CF9134
:100480001F910F910895615030F02091F100FC010F
:1004900020830196F8CF289884E680939D050895DF
:1004A000AF92BF92CF92DF92EF92FF920F931F9382
:1004B000CF93DF936C017B018B01040F151FEB01C0
:1004C0005E01AE18BF08C017D10759F06991D60177
:1004D000ED91FC910190F081E02DC6010995892BE9
:1004E00079F7C501DF91CF911F910F91FF90EF90A8
:1004F000DF90CF90BF90AF900895CF93DF931F927E
:10050000CDB7DEB76983DC01ED91FC910280F38108
:10051000E02D41E050E0BE016F5F7F4F09950F90E5
:10052000DF91CF91089583E08093E9008091F200FC
:10053000882319F08AE38093E80008950E946601F9
:1005400090E00895CF93DF931F92CDB7DEB7FC0103
:100550008485958597FD08C02FEF3FEF3587248769
:100560000F90DF91CF910895CE0101960E943C013A
:10057000019719F4898190E0F3CF8FEF9FEFF0CFCF
:100580000F931F93CF93DF931F92CDB7DEB78C01EC
:10059000FC018485958597FF0BC0CE0101960E94D2
:1005A0003C01019771F4898190E0F8019587848777
:1005B000F801848595850F90DF91CF911F910F9160
:1005C00008958FEF9FEFF1CFFC018485958597FD0E
:1005D0000BC09FB7F89482E08093E9008091F2000D
:1005E0009FBF90E0019608959FB7F89482E08093B2
:1005F000E9008091F2009FBF90E0089581508F3014
:1006000008F047C0E82FF0E0E85FFC4F0C94E833B7
:100610002503290317031D03210349034903490344
:100620002C03320336033A03400349034403809109
:1006300080008F77809380000895809180008F7D67
:10064000F9CF80918000877FF5CF84B58F7784BD07
:10065000089584B58F7DFBCF809190008F77809334
:1006600090000895809190008F7DF9CF8091900047
:10067000877FF5CF8091C0008F778093C000089569
:100680008091C0008F7DF9CF8091C200877F8093D9
:10069000C2000895CF93DF93282F30E0F901E05E88
:1006A000FE4F8491F901E151FE4FD491F901E053DD
:1006B000FE4FC491CC23A1F081110E94FE02EC2FC9
:1006C000F0E0EE0FFF1FEC54FE4FA591B491EC91BA
:1006D000ED2381E090E009F480E0DF91CF9108956F
:1006E00080E090E0FACF1F93CF93DF93282F30E084
:1006F000F901E05EFE4F8491F901E151FE4FD49182
:10070000F901E053FE4FC491CC23A9F0162F8111BB
:100710000E94FE02EC2FF0E0EE0FFF1FEE53FE4FA3
:10072000A591B4918FB7F894EC91111108C0D095B0
:10073000DE23DC938FBFDF91CF911F910895DE2BD5
:10074000F8CFCF93DF9390E0FC01E151FE4F24916D
:1007500080539E4FFC0184918823D1F090E0880F54
:10076000991FFC01EE5EFE4FA591B491FC01EE5382
:10077000FE4FC591D49161110EC09FB7F8948C9132
:10078000E22FE0958E238C932881E223E8839FBF9C
:10079000DF91CF9108958FB7F894EC91E22BEC9311
:1007A0008FBFF6CF823108F08251E82FF0E0EA5F88
:1007B000FE4FE49190917B008E2F880F880F8072FE
:1007C0009F7D892B80937B00E770E064E0937C0041
:1007D00080917A00806480937A0080917A0086FD0F
:1007E000FCCF809178009091790008953FB7F894FC
:1007F0008091EE039091EF03A091F003B091F1038B
:1008000026B5A89B05C02F3F19F00196A11DB11D6B
:100810003FBFBA2FA92F982F8827BC01CD01620FA7
:10082000711D811D911D42E0660F771F881F991F62
:100830004A95D1F708958F929F92AF92BF92CF922F
:10084000DF92EF92FF924B015C010E94F6036B0175
:100850007C010E94F6036C197D098E099F09683E90
:10086000734081059105A8F321E0821A9108A1083F
:10087000B10888EEC80E83E0D81EE11CF11C81147B
:100880009104A104B10429F7FF90EF90DF90CF907D
:10089000BF90AF909F908F9008958F929F92AF924C
:1008A000BF92CF92DF92EF92FF920F931F93CF935D
:1008B000DF936C017B018A0180911301882309F485
:1008C0005CC080919E05882309F457C08091F8038D
:1008D00080FF05C08091E00082608093E000E80125
:1008E000B12C8AEFA82E93E0892E2AE3922E20972E
:1008F00011F4BB20D9F10E94660181110AC0AA94AB
:10090000AA20D9F161E070E080E090E00E941B0431
:10091000EECF8C171D0611F00CF08C2F9FB7F894BA
:100920008092E9002091E80025FD02C09FBFDFCF43
:10093000282F30E0C21BD30BF701815020F04191EA
:100940004093F100FACFE20EF31EBB2021F090920B
:10095000E800B12CEBCF8091E80085FDE7CF9092C5
:10096000E800BB24B394209709F3F3CF5D9884E6A5
:100970008093F703101611063CF081E090E0F60139
:100980009383828310E000E0C801DF91CF911F9133
:100990000F91FF90EF90DF90CF90BF90AF909F901E
:1009A0008F9008952FB7F8946091EA037091EB034C
:1009B0008091EC039091ED032FBF0895089520914D
:1009C000FC033091FD032817390771F49091FA0365
:1009D0008091FB03981741F0E091FA03F0E0E755AE
:1009E000FC4F808190E008958FEF9FEF0895089568
:1009F000EF92FF920F931F93CF93DF93DC015C96EE
:100A0000ED90FC905D97E114F10479F481E090E0C1
:100A100013969C938E93129790E080E0DF91CF9194
:100A20001F910F91FF90EF9008955196ED91FC91D9
:100A3000529750968C915097982F90950FB75E963D
:100A40002C915E97122F127021FD6095F8942081F1
:100A5000112319F1282B2083E7012197F1F728E0D2
:100A6000462F50E0308160FF1AC0382B3083E701F9
:100A70002197F1F7BA0175956795215089F71123F0
:100A800081F08081892380830FBF5C968D919C913A
:100A90000197F1F781E090E0C1CF2923DCCF392322
:100AA000E5CF9081892BEFCF2091FC033091FD039E
:100AB0002817390771F48091FB032091FA0390E025
:100AC000805C9F4F821B910960E470E00E94933329
:100AD000089590E080E008952091FC033091FD039B
:100AE00028173907B9F49091FA038091FB039817FE
:100AF00089F0E091FA03F0E0E755FC4F8081209106
:100B0000FA0330E02F5F3F4F2F7333272093FA0310
:100B100090E008958FEF9FEF089520918603260FB0
:100B20003327331F21323105ECF420910F06FC01ED
:100B300090E080E0243069F082E00895A09186037F
:100B40002191AC014A595C4FA40FB52FB11D2C93D4
:100B50000196861798F380918603680F6093860349
:100B600080E0089581E0089510920F0681E080935F
:100B7000EE051092E90561E082E00E94730361E0F6
:100B800083E00E947303E9EBF0E080818E7F808335
:100B900080818D7F808388E48093B80085E4809392
:100BA000BC0008951092A4051092A3051092A6050A
:100BB0001092C8050E94B4058AE391E09093A205C3
:100BC0008093A1058BE391E09093A00580939F050E
:100BD0000895CF93DF9391E0909365038823B9F054
:100BE000C091B800D091BA008091BC008A7B8093FC
:100BF000BC0060E082E00E94730360E083E00E943A
:100C000073030E94B405D093BA00C093B800DF917B
:100C1000CF910895CF92DF92EF92FF920F931F939F
:100C2000CF93DF93D82FC62F613208F098C00E946F
:100C3000F6036B017C0180910F0681116BC081E08E
:100C400080930F068093EE059FEF9093ED05109231
:100C5000EC059C0F9093EB058093EA058091EA05E3
:100C6000DD0FD82BD093EA058091E905813009F09A
:100C700078C01092E9050E94F6036B017C01809117
:100C8000EA058093BB008091110690911206A09115
:100C90001306B0911406892B8A2B8B2BA1F00E948E
:100CA000F60300911106109112062091130630915F
:100CB00014066C197D098E099F0906171707280766
:100CC000390708F448C08091BC0083FDD8CF85EC7B
:100CD0008093BC000E94F6036B017C0180910F069B
:100CE000813009F440C08091EC058C1710F4C0915C
:100CF000EC05E9ECF5E0AFEEB5E080E08C1355C013
:100D00008C2FDF91CF911F910F91FF90EF90DF908B
:100D1000CF9008958091110690911206A09113062C
:100D2000B0911406892B8A2B8B2B09F484CF0E9457
:100D3000F6030091110610911206209113063091CE
:100D400014066C197D098E099F09061717072807D5
:100D5000390708F070CF809110060E94E905C0E0C5
:100D6000CFCF85EEB5CF8091110690911206A0915C
:100D70001306B0911406892B8A2B8B2B09F4AECF66
:100D80000E94F6030091110610911206209113069D
:100D9000309114066C197D098E099F0906171707F3
:100DA0002807390708F09ACFD6CF91919D938F5F8E
:100DB000A5CFCF92DF92EF92FF920F931F93CF9325
:100DC000DF93D091C80581E0D13208F09CC0C0917A
:100DD000C7050E94F6036B017C0180910F0681110B
:100DE0006CC082E080930F0681E08093EE058FEF68
:100DF0008093ED051092EC05D093EB05A7EAB5E0E2
:100E0000E9ECF5E080E0D8138DC01092EA058091FE
:100E1000EA05CC0FC82BC093EA058091E905813023
:100E200009F084C01092E9050E94F6036B017C0171
:100E30008091EA058093BB00809111069091120683
:100E4000A0911306B0911406892B8A2B8B2BA1F04D
:100E50000E94F603009111061091120620911306CC
:100E6000309114066C197D098E099F090617170722
:100E70002807390708F442C08091BC0083FDD8CF11
:100E800085EC8093BC000E94F6036B017C0180918D
:100E90000F06823009F44CC08091ED058F3F09F4B4
:100EA00069C08091ED05803209F466C08091ED053E
:100EB000803309F463C084E026C0809111069091CC
:100EC0001206A0911306B0911406892B8A2B8B2B46
:100ED00009F483CF0E94F6030091110610911206C7
:100EE00020911306309114066C197D098E099F0913
:100EF000061717072807390708F06FCF80911006EB
:100F00000E94E90585E01092A6051092C80510928E
:100F1000A505DF91CF911F910F91FF90EF90DF908A
:100F2000CF9008959D9191938F5F6DCF85EEA9CF5E
:100F30008091110690911206A0911306B0911406AB
:100F4000892B8A2B8B2B09F4A2CF0E94F6030091E8
:100F500011061091120620911306309114066C1997
:100F60007D098E099F09061717072807390708F01A
:100F70008ECFC4CF80E0C7CF82E0C5CF83E0C3CFA0
:100F8000E091A4058091A305E81730F4F0E0E15169
:100F9000FA4F808190E008958FEF9FEF0895909130
:100FA000A4058091A3052FEF3FEF981748F4E92F90
:100FB000F0E0E151FA4F208130E09F5F9093A4056B
:100FC000C9010895CF92DF92EF92FF920F931F9382
:100FD000CF93DF937C01CB018A012091A5052223C9
:100FE00089F0EB016B01C40ED51ECC15DD0569F04F
:100FF0006991D701ED91FC910190F081E02DC7013D
:101000000995F3CF642F0E948D05C801DF91CF9120
:101010001F910F91FF90EF90DF90CF900895CF93A5
:10102000DF931F92CDB7DEB769832091A5052223F8
:10103000F9F02091C805203258F021E030E0FC01A1
:101040003383228390E080E00F90DF91CF91089569
:101050008091A605E82FF0E0E955FA4F9981908339
:101060008F5F8093A6058093C80581E090E0ECCF68
:1010700061E0CE0101960E948D05F7CF682F85E6CD
:1010800096E00C940F08FF920F931F93CF93DF937A
:10109000EC01062FF42E152F8091900691E090938D
:1010A000A5058093C7051092A6051092C8058D2F3F
:1010B00090E00E943E08CE0199270E943E08CF2D65
:1010C000D12F0C0F1D2F111DC017D10731F06991C1
:1010D00085E696E00E940F08F7CF0E94D9066AE0E5
:1010E00070E080E090E0DF91CF911F910F91FF9031
:1010F0000C941B047F928F929F92AF92BF92CF92DB
:10110000DF92EF92FF920F931F93CF93DF936C01C7
:10111000C62F8A01862E912CC4016EE170E00E94D8
:101120009333762E7601D0E05801AC18BD08D71560
:1011300060F4A5014E0D5F1D6EE1C7010E944308DA
:10114000DF5F8EE1E80EF11CF2CFC4016EE170E0CA
:101150000E949333C81BD0E0A8014C0F5D1F682F7D
:10116000C6018C0F9D1FDF91CF911F910F91FF90B2
:10117000EF90DF90CF90BF90AF909F908F907F9037
:101180000C94430890E080E008959091BD0188237D
:1011900049F091110DC081E08093BD0161E08CE0C8
:1011A0000C947303992321F01092BD0160E0F7CFF6
:1011B00008950F931F930E94F60360935103709359
:1011C0005203809353039093540381E00E944A0397
:1011D000892B09F0A4C08091BC01882309F492C036
:1011E0008091B8019091B901A091BA01B091BB0171
:1011F000892B8A2B8B2B09F483C00E94F603009164
:10120000B8011091B9012091BA013091BB01601B66
:10121000710B820B930B6093590370935A03809365
:101220005B0390935C038091B4019091B501A09110
:10123000B601B091B7014497A105B10578F5809149
:10124000590390915A03A0915B03B0915C034091C4
:10125000B0015091B1016091B2017091B301840F5E
:10126000951FA61FB71F8093B0019093B101A09363
:10127000B201B093B3018091B4019091B501A091F6
:10128000B601B091B7010196A11DB11D8093B401C3
:101290009093B501A093B601B093B7018091B401CA
:1012A0009091B501A091B601B091B7014497A10505
:1012B000B10530F16091B0017091B1018091B2013E
:1012C0009091B30124E130E040E050E00E94A73368
:1012D00020935D0330935E0340935F03509360035C
:1012E0001092B4011092B5011092B6011092B7019C
:1012F0001092B0011092B1011092B2011092B3019C
:101300001092BC010E94F6036093B8017093B9017A
:101310008093BA019093BB011F910F91089581E0D2
:101320008093BC01F9CF80918D0590918E05019637
:1013300090938E0580938D05E0910E04F0910F043B
:10134000EE0FFF1FEE5CFE4F208131812817390719
:1013500024F410928E0510928D05089510928E053A
:1013600010928D0510920F0410920E0410929005A9
:1013700010928F0508950F931F930E94F6036093B8
:10138000490370934A0380934B0390934C0380E08E
:101390000E944A03892B79F58091AE018823F1F0F0
:1013A0008091100490911104A0911204B091130443
:1013B000892B8A2B8B2B81F00E94F603009110045D
:1013C000109111042091120430911304601B710BD1
:1013D00070936403609363031092AE010E94F6035E
:1013E000609310047093110480931204909313047B
:1013F0001F910F91089581E08093AE01F9CFCF92B4
:10140000DF92FF920F931F93CF93DF93EC01062F90
:101410006A018091900691E09093A5058093C7059D
:101420001092A6051092C8058D2F90E00E943E08EC
:10143000CE0199270E943E080E94D906602F809114
:1014400090060E940A06F82E1092A4058093A30528
:1014500010E0D0E0C0E0C017D10771F08091A40582
:10146000F81641F085E696E00E94CF07F601EC0FF2
:10147000FD1F80832196EFCFDF91CF911F910F91B8
:10148000FF90DF90CF900895FC0101900020E9F7D4
:101490003197AF01481B590BBC0185E196E00C94D4
:1014A0004D048F929F92AF92BF920F931F93CF9351
:1014B000DF93CDB7DEB7A1970FB6F894DEBF0FBEAE
:1014C000CDBF19A2423008F44AE08E010F5D1F4FD4
:1014D000842E912CB12CA12CA50194010E94A7333C
:1014E000E62FB901CA01EA30F4F4E05DD801EE93C9
:1014F0008D01232B242B252B79F790E080E010978A
:1015000019F0CD010E94440AA1960FB6F894DEBFEF
:101510000FBECDBFDF91CF911F910F91BF90AF90C4
:101520009F908F900895E95CE1CFCF92DF92EF9288
:10153000FF92CF93DF936C01990FEE08FF08F7FE3F
:1015400019C06DE285E196E00E947D02EC016627FC
:101550007727CB016C197D098E099F094AE00E940B
:10156000510A8C0F9D1FDF91CF91FF90EF90DF907C
:10157000CF9008954AE0C701B601DF91CF91FF9067
:10158000EF90DF90CF900C94510A0C94440ACF93C3
:10159000DF93EC0182EA91E00E94C50ACE01DF915F
:1015A000CF910C94950A4F925F926F927F928F9297
:1015B0009F92AF92BF92CF92DF92EF92FF920F93E2
:1015C0001F93CF936B017C01742EAC019B010E9491
:1015D0004D33882399F089E891E0CF911F910F91C5
:1015E000FF90EF90DF90CF90BF90AF909F908F9043
:1015F0007F906F905F904F900C94440A4601570182
:10160000E894B7F82FEF3FEF4FE75FE7C501B4016C
:101610000E944D3381110DC02FEF3FEF4FE75FE781
:10162000C501B4010E94A53018161CF48DE891E0A4
:10163000D4CF2FEF3FEF4FE75FE4C701B6010E9421
:10164000F83218161CF481E991E0C7CF2FEF3FEF75
:101650004FE75FECC701B6010E94A53087FDF3CFCD
:1016600020E030E0A901C701B6010E94A53010E0DA
:1016700000E087FF0AC06DE285E196E00E947D02EE
:101680008C01F7FAF094F7F8F094C0E060E070E0B5
:1016900080E09FE37C1641F020E030E040E251E43E
:1016A0000E945032CF5FF6CFA70196010E94E4312D
:1016B0002B013C010E94C9324B015C014AE00E94AF
:1016C000510A7C01E00EF11ECC23C1F1C501B40129
:1016D0000E94AA309B01AC01C301B2010E94E33118
:1016E0004B015C016EE285E196E00E947D02E80E0E
:1016F000F91EC15018F120E030E040E251E4C5018C
:10170000B4010E940B312B013C010E94C9324B01F4
:10171000B12CA12C4AE0C501B4010E94510AE80E87
:10172000F91EC501B4010E94AA309B01AC01C3019E
:10173000B2010E94E3314B015C01DBCFC701CF91C5
:101740001F910F91FF90EF90DF90CF90BF90AF90DF
:101750009F908F907F906F905F904F90089585ED50
:101760008093BC008091110690911206A0911306FF
:10177000B09114060796A11DB11D23E0B695A7955B
:10178000979587952A95D1F72091BC0024FD03C039
:1017900010920F0608954091110650911206609123
:1017A000130670911406452B462B472B69F30097BF
:1017B000A105B10541F025E32A95F1F70000019755
:1017C000A109B109E1CF809110060C94E9058F922F
:1017D0009F92AF92BF92CF92DF92EF92FF920F93C0
:1017E0001F9347010E9450320E9405336B017C0118
:1017F000A801940160E070E080E89FE30E9450320D
:10180000A70196010E940B312FE03FEC4BE55BE313
:101810000E94E4319B01AC0160E070E080E89FE34E
:101820000E94503223E333E948E853E40E94E33155
:1018300020E030E048EC52E40E940B316B017C0167
:1018400020E030E0A9010E94F83220E030E040E0E2
:101850005FE387FD2DC0C701B6010E94E4310E94FD
:10186000C23224E630E040E050E00E94C933CA01B1
:10187000B9010E94AC306B017C0120E030E046EC05
:1018800052EC0E94A53087FF06C0C12CD12C86ECFB
:10189000E82E82ECF82EC701B6011F910F91FF9040
:1018A000EF90DF90CF90BF90AF909F908F90089572
:1018B000C701B6010E94E331D2CFCF93DF93CDB7FA
:1018C000DEB7CA54D1090FB6F894DEBF0FBECDBF44
:1018D00080911A04882309F4F2C081E69EE19A837C
:1018E00089831B821C821D821E8240913C0550917F
:1018F0003D0560913E0570913F054F83588769878C
:101900007A87409138055091390560913A05709178
:101910003B054B875C876D877E87409130055091F2
:10192000310560913205709133054F87588B698B73
:101930007A8B209162052B8B20912E0530912F05FB
:101940003D8B2C8B209130012E8B20912E012F8BE3
:1019500020912C01288F9A8F898F40910A045091F1
:101960000B0460910C0470910D044B8F5C8F6D8F94
:101970007E8F409106045091070460910804709195
:1019800009044F8F58A369A37AA3209128053091A9
:1019900029053CA32BA320912605309127053EA3C2
:1019A0002DA398A78FA34091020450910304609146
:1019B00004047091050449A75AA76BA77CA79EA7AA
:1019C0008DA7409134055091350560913605709191
:1019D00037054FA758AB69AB7AAB9CAB8BAB80910B
:1019E00061058DAB809160058EAB80912A0190914D
:1019F0002B0198AF8FAB80912801909129019AAF6C
:101A000089AF80912601909127019CAF8BAF809187
:101A10002401909125019EAF8DAF80915E0590913C
:101A20005F0521969FAF8EAF219780915C059091C5
:101A30005D0523969FAF8EAF2397809122019091F1
:101A4000230125969FAF8EAF2597809158059091E1
:101A5000590527969FAF8EAF279780915605909195
:101A6000570529969FAF8EAF2997809120019091BD
:101A700021012B969FAF8EAF2B97AE014F5F5F4F2B
:101A800060E290E080E00E947A08AE014F5D5F4F17
:101A900060E280E290E00E947A08AE014F5B5F4F07
:101AA0006AE080E490E00E947A08C65BDF4F0FB6E0
:101AB000F894DEBF0FBECDBFDF91CF91089580E1D6
:101AC00097E00DCF2F923F924F925F926F927F924D
:101AD0008F929F92AF92BF92CF92DF92EF92FF923E
:101AE0000F931F93CF93DF93CDB7DEB762970FB6F7
:101AF000F894DEBF0FBECDBF8FB7F894209163037B
:101B000030916403309362032093610340915D033D
:101B100050915E0360915F0370916003409159039F
:101B200050915A0360915B0370915C03409355039D
:101B30005093560360935703709358034091510399
:101B400050915203609153037091540340934D039D
:101B500050934E0360934F03709350034091490399
:101B600050914A0360914B0370914C03409345039D
:101B70005093460360934703709348038FBF2091AF
:101B80004A0530914B053A8329832130310509F00C
:101B900000C40E94D2046093410370934203809377
:101BA000430390934403109240030E94F603009174
:101BB0004503109146032091470330914803601B71
:101BC000710B820B930B613472448F40910520F0AE
:101BD00010923B0310923A030E94D2040091360304
:101BE000109137032091380330913903601B710B3A
:101BF000820B930B6F3171058105910530F10E94C5
:101C0000D204609336037093370380933803909324
:101C1000390320913A0330913B0380913403909132
:101C200035038217930728F4019690933503809328
:101C3000340380913403909135032817390728F431
:101C400001979093350380933403809132039091F0
:101C50003303843191059CF420913003309131039A
:101C60004091340350913503240F351F30933103D5
:101C70002093300301969093330380933203809135
:101C80003203909133034497A4F0109233031092DF
:101C90003203809130039091310364E170E00E943F
:101CA000933370935505609354051092310310924D
:101CB00030030E94F603C0904D03D0904E03E09095
:101CC0004F03F09050036C197D098E099F09603312
:101CD00075478105910568F58091550390915603EC
:101CE000A0915703B09158038C019D010D5D1540E3
:101CF0002109310903351F4621053105D0F4BC0106
:101D0000990F880B990B0E94AC309B01AC0160E0ED
:101D100074E284E799E40E9450322DEC3CEC4CEEE6
:101D200051E40E940B310E94C23270932F036093E2
:101D30002E030E94F6036C197D098E099F096134F8
:101D400072448F40910520F010922F0310922E03C1
:101D50000E94D20420902E0330902F030091BE01E8
:101D60001091BF012091C0013091C101601B710B26
:101D7000820B930B6B3071058105910508F4C0C08F
:101D80000E94D2046093BE017093BF018093C00192
:101D90009093C1018091520590915305821593054E
:101DA00008F053C09101281B390B283B3B4030F011
:101DB00088519C4F90935305809352058091520512
:101DC000909153059101281B390B203D374030F08D
:101DD0008C509E4F909353058093520580915205ED
:101DE000909153059101281B390B283E334030F068
:101DF0008C599F4F909353058093520580915205C3
:101E0000909153059101281B390B243F314028F054
:101E10000A969093530580935205809152059091B4
:101E200053059101281B390B2A3F310528F00596EF
:101E300090935305809352058091520590915305DC
:101E4000019690935305809352058091520590918D
:101E500053052816390608F053C09C01221933098E
:101E6000283B3B4030F0885E93409093530580932D
:101E7000520580915205909153059C012219330916
:101E8000203D374030F0845F91409093530580931C
:101E9000520580915205909153059C0122193309F6
:101EA000283E334030F08456910990935305809337
:101EB000520580915205909153059C0122193309D6
:101EC000243F314028F00A979093530580935205A0
:101ED00080915205909153059C01221933092A3FA4
:101EE000310528F005979093530580935205809112
:101EF0005205909153050197909353058093520595
:101F000080912A0390912B03A0912C03B0912D0373
:101F100084319105A105B10518F520915205309144
:101F20005305409126035091270360912803709137
:101F30002903420F531F611D711D409326035093C7
:101F4000270360932803709329030196A11DB11DF7
:101F500080932A0390932B03A0932C03B0932D031B
:101F600080912A0390912B03A0912C03B0912D0313
:101F70004497A105B10530F110922A0310922B036A
:101F800010922C0310922D03609126037091270369
:101F9000809128039091290324E130E040E050E053
:101FA0000E94A733209322033093230340932403FA
:101FB00050932503109226031092270310922803B2
:101FC000109229030E94D20400911E0310911F0356
:101FD0002091200330912103601B710B820B930B26
:101FE000693E73408105910508F4A0C00E94D204A7
:101FF00060931E0370931F0380932003909321032B
:1020000085E10E94D203BC01990F880B990B0E94B5
:10201000AC3023E333E343EA50E40E940B3120E089
:1020200030EC4FE754E40E9450329B01AC0163E373
:1020300073E383EA90E40E94503220E030E040E80D
:102040005FE30E94E33120E030E04AEF54E40E9475
:102050000B31E12CF12C0AE715E420E030E64AEEE2
:1020600056E40E94E70B0E94C23270931D036093F6
:102070001C0382E10E94D203BC01990F880B990BCB
:102080000E94AC3023E333E343EA50E40E940B3177
:1020900020E030EC4FE754E40E9450329B01AC0149
:1020A00063E373E383EA90E40E94503220E030E07F
:1020B00040E85FE30E94E33120E030E04AEF54E47F
:1020C0000E940B31E12C10E6F12E0AE615E420E027
:1020D00030E44CE156E40E94E70B0E94C232709358
:1020E0001B0360931A0386E10E94D203BC01990F7F
:1020F000880B990B0E94AC3023EB3BE742EF5BE38C
:102100000E940B3120E038EC4BE656E40E940B3184
:1021100020E030E14FE955E40E945032609316030D
:1021200070931703809318039093190380912203EF
:1021300090912303A0912403B091250389839A836E
:10214000AB83BC83853F9140A105B10508F449C22A
:1021500020915405309155053E832D8337FD41C2B2
:10216000B101032C000C880B990B0E94AC306B0161
:102170007C010E94D2040091C4011091C5012091FC
:10218000C6013091C701AB01BC01401B510B620B72
:10219000730B8091200190912101092E000CAA0B54
:1021A000BB0B84179507A607B70708F08FC080916F
:1021B000C2019091C3019A8B898B0E94D2046093D3
:1021C000C4017093C5018093C6019093C701AD818E
:1021D000BE81BD01BB0F880B990B0E94AC309B01E7
:1021E000AC01C701B6010E9450324B015C01E98984
:1021F000FA89BF01FF0F880B990B0E94AC302B01AD
:102200003C01AC019B01C501B4010E94F8321816D3
:102210001CF529893A89243F3140F4F4A301920145
:10222000C501B4010E94E33120E030E040EA51E40E
:102230000E94F83218163CF489899A890596909381
:10224000C3018093C2018091C2019091C3010196A4
:102250009093C3018093C201A091C201B091C301C8
:10226000BA8BA98BBD01BB0F880B990B0E94AC30B8
:102270002B013C01AC019B01C501B4010E94A530BA
:1022800087FF24C0E989FA891E161F06FCF4A50100
:102290009401C301B2010E94E33120E030E040EA42
:1022A00051E40E94F832181644F429893A892550DD
:1022B00031093093C3012093C2018091C2019091F2
:1022C000C30101979093C3018093C20160912E01D5
:1022D00070912F01072E000C880B990B0E94AC30D7
:1022E0004B015C016091300170913101072E000CAF
:1022F000880B990B0E94AC309B01AC01C501B40165
:102300000E9450324B015C0125E33EE54AEC5FE35D
:10231000C701B6010E9450322B013C010091C2015D
:102320001091C3013FEF3F874FEF488B1B861C8600
:102330008AE78D8794E49E87A1E0B0E0BA8BA98BF1
:10234000E989FA89E130F10509F4DBC02BE13AECC7
:102350004BEE5FE3E230F10509F4D7C020E030E056
:1023600040EC5FE3E330F10509F4D4C02BEA3AEA2C
:102370004AEA5FE3E430F10509F4CCC020E030E044
:10238000A901359709F0C1C02AE939E949E95FE3B4
:10239000C1C089819A81892B09F007CC0E94D2049F
:1023A00060933C0370933D0380933E0390933F03FF
:1023B0000E94D204009141031091420320914303F3
:1023C00030914403601B710B820B930B6D3D754084
:1023D0008105910518F081E08093400380914003CE
:1023E000882309F4E2CB6091610370916203CB0111
:1023F0008C5291408533994EE0F490E080E00E9449
:10240000AA309B01AC0160E074E284E799E40E9489
:10241000503223E333E341E252E40E94503226E09B
:102420003AE24FE050E40E940B310E94C2327A83BC
:102430006983E981FA81F0933B03E0933A03C0900A
:102440003005D0903105E0903205F090330520E062
:1024500030E0A901C701B6010E94F8321816E4F471
:1024600029813A81B901330F880B990B0E94AC3056
:10247000A70196010E940B3120E030E048EC52E4C5
:102480000E9450320E94C232A981BA81A60FB71FA2
:10249000B0933B03A0933A0320E030E0A901C701C9
:1024A000B6010E94A53087FF80CBE0913A03F091FE
:1024B0003B03FA83E983BF01FF0F880B990B0E944E
:1024C000AC304B015C01A701960160E070E0CB01EC
:1024D0000E94E3319B01AC01C501B4010E940B31A4
:1024E00020E030E048EC52E40E9450320E94C232B8
:1024F00029813A81261B370B30933B0320933A0303
:1025000054CB20E030E040E250E489899A89069774
:1025100009F47DC4C301B2010E945032A5019401A7
:102520000E9450322AED3FE049E450E40E940B3112
:1025300025E236E041E25FE30E940B3120E030E02B
:1025400040E752E40E940B3122E03BE249EC54E4C4
:102550000E9450329B01AC01C701B6010E9450326B
:102560000E94C232061717070CF056C4601B710B8D
:10257000072E000C880B990B0E94AC306F83788774
:1025800089879A872B853C854D855E850E94A5307D
:1025900087FF0CC0B989BF87EA89E88BFF81FB8779
:1025A00028852C8739853D874A854E8789899A8970
:1025B00001969A8B898B079709F0C2CE9F859093DD
:1025C0002A05A889A0932B058091240590912505C3
:1025D000ED81FE818E179F0724F4F0932505E0938B
:1025E0002405F9EE2F16F3E03F066CF10E94D204A9
:1025F00000911203109113032091140330911503DD
:10260000601B710B820B930B693E73408105910532
:10261000D0F00E94D204609312037093130380934E
:1026200014039093150380911003909111038C3340
:1026300091054CF401968C33910509F4F2C3909303
:102640001103809310030E94D2040E94AA306B01F0
:102650007C0160910C0370910D0380910E039091A9
:102660000F030E94AA309B01AC01C701B6010E9472
:10267000E3316B017C01C0920803D0920903E09220
:102680000A03F0920B0320E030E046E953E40E9495
:10269000F83218160CF0FAC00E94D20460930C03B2
:1026A00070930D0380930E0390930F0360913A0390
:1026B00070913B03072E000C880B990B0E94AC30E5
:1026C00020E030E041E655E40E945032A701960137
:1026D0000E940B3120E030E04AE754E40E9450327F
:1026E0006B017C0120913C0530913D0540913E05F8
:1026F00050913F050E94E4312B013C0140923C0582
:1027000050923D0560923E0570923F05209138053C
:102710003091390540913A0550913B05C701B6010A
:102720000E94E4314B015C0180923805909239059A
:10273000A0923A05B0923B05209104033091050325
:102740004091060350910703C701B6010E94E4318E
:102750006B017C01C0920403D0920503E092060352
:10276000F09207032091000330910103409102038E
:1027700050910303C301B2010E94E3312DEC3CEC04
:102780004CEC5DE30E94F83287FD0AC040920003E2
:102790005092010360920203709203030E945D0C49
:1027A0002091FC023091FD024091FE025091FF0207
:1027B000C501B4010E94E3312DEC3CEC4CEC5DE32F
:1027C0000E94F83287FD0AC08092FC029092FD02BE
:1027D000A092FE02B092FF020E945D0C8090340530
:1027E00090903505A0903605B09037052091F802FD
:1027F0003091F9024091FA025091FB02C501B401F7
:102800000E94E3312DEC3CEC4CEC5DE30E94F8328D
:1028100087FD0AC08092F8029092F902A092FA0213
:10282000B092FB020E945D0C2091F4023091F502FF
:102830004091F6025091F702C701B6010E94E331C0
:1028400020E030E040E85FE30E94F83287FD1EC0E0
:10285000C092F402D092F502E092F602F092F702F2
:10286000A70196016091FE037091FF03809100041F
:10287000909101040E94E431609334057093350512
:1028800080933605909337050E945D0C89E00E9485
:102890004A038130910509F0EFC290934705809378
:1028A00046058AE00E944A038130910509F0E9C299
:1028B00090934505809344058BE00E944A03813044
:1028C000910509F0E3C2909343058093420584E0AB
:1028D0000E944A03892B09F0DEC21092490510922A
:1028E000480585E00E944A03892B09F0DBC281E09C
:1028F00090E090934B0580934A0584E10E94D203B7
:1029000097FDD5C29093F3028093F2028091F0027A
:102910009091F102863491059CF42091EE02309161
:10292000EF024091F2025091F302240F351F3093D1
:10293000EF022093EE0201969093F1028093F00251
:102940008091F0029091F1028634910544F010924A
:10295000F1021092F0021092EF021092EE028091BA
:102960001E0190911F018D399F4F81F48091F202D9
:102970009091F30290931F0180931E0190930701A1
:102980008093060190930501809304010E94D20474
:102990000091EA021091EB022091EC023091ED02DD
:1029A000601B710B820B930B613D77408105910594
:1029B00008F4A2C10E94D2046093EA027093EB0271
:1029C0008093EC029093ED022091F2023091F30299
:1029D00080911E0190911F01821793072CF401969C
:1029E00090931F0180931E01809104019091050135
:1029F000821793072CF401969093050180930401AC
:102A000080911E0190911F01281739072CF401971E
:102A100090931F0180931E01809106019091070100
:102A20002817390774F401979093070180930601E2
:102A30008091040190910501019790930501809385
:102A4000040160911E0170911F016D35710508F040
:102A500033C2072E000C880B990B0E94AC3020E08B
:102A600030E040E251E40E940B319B01AC0160E098
:102A700070E184EA96E40E94E33120E030E04AE726
:102A800054E40E9450326093E6027093E702809310
:102A9000E8029093E902C090E602D090E702E0904D
:102AA000E802F090E9028090340590903505A090FE
:102AB0003605B090370520E030E0A90160910204AE
:102AC0007091030480910404909105040E94A53044
:102AD000811110C0C0920204D0920304E092040459
:102AE000F09205048092060490920704A0920804D4
:102AF000B092090440900A0450900B0460900C04BA
:102B000070900D04A7019601C301B2010E94A53087
:102B100087FF1EC0A3019201C701B6010E94E331E5
:102B200020E030E040E050E40E94F832181684F4CF
:102B3000C0920204D0920304E0920404F0920504CF
:102B40008092060490920704A0920804B0920904AF
:102B5000C0920A04D0920B04E0920C04F0920D048F
:102B60008090020490900304A0900404B0900504A7
:102B7000C090E602D090E702E090E802F090E9020F
:102B8000A7019601C501B4010E94F83218160CF095
:102B9000B3C020910604309107044091080450917D
:102BA0000904609134057091350580913605909146
:102BB00037050E94E3312B013C01A7019601C501B5
:102BC000B4010E94E3319B01AC0165ED78E781E936
:102BD00090E40E9450329B01AC01C301B2010E94FB
:102BE0000B314B015C0120E030E0A9010E94F8327A
:102BF00087FD82C020E030E048EC52E4C501B4011A
:102C00000E94A53087FF78C08091E2029091E30294
:102C1000A091E402B091E5020B97A105B10580F007
:102C20001092DE021092DF021092E0021092E10296
:102C30001092E2021092E3021092E4021092E50276
:102C4000C501B4010E94C9320091DE021091DF0279
:102C50002091E0023091E102600F711F821F931FEB
:102C60006093DE027093DF028093E0029093E102B2
:102C70002091E2023091E3024091E4025091E5029A
:102C80002F5F3F4F4F4F5F4F2093E2023093E3029D
:102C90004093E4025093E5020E94A7334901309328
:102CA00029052093280520E030E0A901C701B601DD
:102CB0000E94F832181604F520E030E040EB51E4B1
:102CC000C701B6010E94A5301816B4F0B401990CE2
:102CD000880B990B0E94AC3025ED38E741E950E4B0
:102CE0000E945032A70196010E940B310E94C2320D
:102CF00070932705609326058091DC029091DD0298
:102D0000863491059CF42091DA023091DB024091E7
:102D10001C0350911D03240F351F3093DB022093B9
:102D2000DA0201969093DD028093DC028091DC024E
:102D30009091DD0286349105A4F01092DD0210928C
:102D4000DC028091DA029091DB0266E470E00E947E
:102D5000933370935105609350051092DB021092EB
:102D6000DA028091D8029091D9028A3A91059CF4B6
:102D70002091D6023091D70240911A0350911B0343
:102D8000240F351F3093D7022093D60201969093DB
:102D9000D9028093D8028091D8029091D9028A3AC0
:102DA0009105A4F01092D9021092D8028091D60217
:102DB0009091D7026AEA70E00E94933370932D05D8
:102DC00060932C051092D7021092D602809156057E
:102DD00090915705009709F0BAC189819A81AB811A
:102DE000BC8185369105A105B10508F4E9C1809142
:102DF0004A0590914B05019709F092C38091D50245
:102E0000882309F48DC381E00E94C508CBC12CEE54
:102E100034EC4EE85FE37ECBD801A61BB70BBD01B7
:102E2000A7CB10921103109210038091200590916E
:102E300021058C3391050CF006CC01968C3391055D
:102E400029F09093210580932005FDCB1092210558
:102E500010922005809122059091230501968436D9
:102E600091052CF49093230580932205ECCB1092CE
:102E7000230510922205E7CB1092470510924605D4
:102E800010CD109245051092440516CD10924305C1
:102E9000109242051CCD81E090E09093490580930B
:102EA00048051FCD10924B0510924A0526CD109271
:102EB000F3021092F2022ACDCB018E5591094B9765
:102EC000C8F4072E000C880B990B0E94AC3020E050
:102ED00030E04AEB52E40E94E33120E030E04CE085
:102EE00052E40E940B319B01AC0160E070E48CE97C
:102EF00096E4C1CDCB018A5791094A97C8F4072EB1
:102F0000000C880B990B0E94AC3020E030E042EFBF
:102F100052E40E94E33120E030E044E152E40E94B8
:102F20000B319B01AC0160E070EA8CE896E4A3CD24
:102F3000CB01855991094F97C8F4072E000C880BD7
:102F4000990B0E94AC3020E030E044E153E40E9451
:102F5000E33120E030E048EF51E40E940B319B0167
:102F6000AC0160E070ED84E896E485CDCB01855B33
:102F700091094E97C8F4072E000C880B990B0E94FC
:102F8000AC3020E030E044E353E40E94E33120E041
:102F900030E040E052E40E940B319B01AC0160E064
:102FA00070E68AE696E467CDCB01845D91094D9782
:102FB000C8F4072E000C880B990B0E94AC3020E05F
:102FC00030E043E553E40E94E33120E030E044E0A8
:102FD00052E40E940B319B01AC0160E070EC8AE589
:102FE00096E449CDCB01825F91098797C8F4072EFB
:102FF000000C880B990B0E94AC3020E030E041E7D8
:1030000053E40E94E33120E030E048EC51E40E94B8
:103010000B319B01AC0160E070E88BE396E42BCDB3
:10302000CB018A5191408697C8F4072E000C880B7B
:10303000990B0E94AC3020E030E84CE853E40E9449
:10304000E33120E030E048EC51E40E940B319B0179
:10305000AC0160E070E48CE196E40DCDCB018154CD
:1030600091408E97C8F4072E000C880B990B0E9494
:10307000AC3020E030E040EA53E40E94E33120E04D
:1030800030E048EA51E40E940B319B01AC0160E062
:1030900070EA8CE096E4EFCCCB0180579140CA9760
:1030A000C8F4072E000C880B990B0E94AC3020E06E
:1030B00030E847EB53E40E94E33120E030E040E8A1
:1030C00051E40E940B319B01AC0160E070EC8AED91
:1030D00095E4D1CCCB018B5A9140C697C8F4072E0A
:1030E000000C880B990B0E94AC3020E030E045EDDD
:1030F00053E40E94E33120E030E040E951E40E94D3
:103100000B319B01AC0160E070E88BEB95E4B3CC34
:10311000CB01825E9140489708F022CD072E000C2B
:10312000880B990B0E94AC3020E030E840EF53E46C
:103130000E94E33120E030E040E252E40E940B3193
:103140009B01AC0160E070E48CE995E494CC8130A3
:10315000910509F06BC089819A81AB81BC8185366C
:103160009105A105B10560F180914A0590914B054B
:103170000197C1F48091D5028823A1F00E94D20466
:1031800000913C0310913D0320913E0330913F0399
:10319000601B710B820B930B61367A4E8105910592
:1031A00008F031CE209150053091510580912C01CD
:1031B00090912D01281739071CF081E00E94C50865
:1031C00080914A0590914B05892B09F068C02091A8
:1031D00050053091510580912C0190912D012817B7
:1031E00039070CF05CC080E00E94C50889819A8193
:1031F000AB81BC81853F9140A105B10508F45CC05D
:103200008091D502811158C08091D402811155C19D
:103210000E94D2046093D0027093D1028093D202B4
:103220009093D30281E08093D40246C0823091050E
:1032300009F073C189819A81AB81BC818536910582
:10324000A105B10508F4BCCF80914A0590914B05CA
:10325000019709F0A7CF8091D502882309F4A2CF66
:103260008091500590915105C2970CF49BCFCBCD26
:1032700089819A81AB81BC81853C9940A105B105CA
:1032800008F44EC180914A0590914B05019709F0D1
:1032900089CF8091D502882309F484CFB4CD898168
:1032A0009A81AB81BC81883C9105A105B10508F0EC
:1032B0009DCF80E00E94C5082091CE023091CF02C0
:1032C0003A832983263431050CF520911603309179
:1032D000170340911803509119036091CA0270912D
:1032E000CB028091CC029091CD020E94E431609398
:1032F000CA027093CB028093CC029093CD02898155
:103300009A8101969093CF028093CE028091CE0253
:103310009091CF028634910514F11092CF02109251
:10332000CE0220E030E04CE852E46091CA02709195
:10333000CB028091CC029091CD020E9450326093DA
:103340004C0570934D0580934E0590934F05109258
:10335000CA021092CB021092CC021092CD020E94AF
:10336000D2040091000110910101209102013091DD
:103370000301601B710B820B930B653F714081054C
:10338000910518F10E94D20460930001709301012D
:10339000809302019093030183E10E94D2039093F2
:1033A0005B0580935A052091580530915905821785
:1033B00093070CF0A4C08091220190912301909377
:1033C0002F0580932E050E94D20481E796E00E948B
:1033D0005405181619060CF057C081E796E00E94B4
:1033E0006C052091C8023091C902F901E753FE4FE4
:1033F00080832F5F3F4F3093C9022093C802E9ECCE
:10340000F1E001900020E9F7CF0101973297208188
:103410002E3341F50297DC018C91853219F510921B
:10342000C9021092C8021FEFE1E2F4E0DF01212F90
:103430001D922A95E9F769EC71E0CF010E940A34E8
:10344000A9ECB1E01D921A95E9F78091C8018111AC
:103450001BC081E08093C80183E090E09093410518
:10346000809340058091C8029091C9028E3F9105DA
:103470005CF01092C9021092C802E9ECF1E08FEF03
:10348000DF011D928A95E9F762960FB6F894DEBFC8
:103490000FBECDBFDF91CF911F910F91FF90EF90A5
:1034A000DF90CF90BF90AF909F908F907F906F9064
:1034B0005F904F903F902F9008950E94D20400910A
:1034C000D0021091D1022091D2023091D302601B20
:1034D000710B820B930B613177428105910508F4E2
:1034E000EBCE0E94D20460933C0370933D03809323
:1034F0003E0390933F0381E08093D502DDCE2817F1
:1035000039070CF062CF821B930B45970CF45DCF0B
:1035100080915C0590915D0552CF039709F4A8CE88
:1035200089819A81AB81BC8185369105A105B10560
:1035300008F446CE37CE4F925F926F927F928F9271
:103540009F92AF92BF92CF92DF92EF92FF920F9332
:103550001F93CF93DF9380910E0490910F04892BDA
:1035600029F580918D0590918E05FC01EE0FFF1FCE
:10357000EE5CFE4F20813181232BC1F01816190615
:10358000ACF490930F0480930E0444E6489F90019E
:10359000499F300D11243093900520938F05109290
:1035A0008E0510928D0581E08093AF018091AF016F
:1035B00081112CC080918F059091900520918D05EF
:1035C00030918E05820F931F863223E0920709F413
:1035D000E9C50CF07EC1893F21E0920709F469C476
:1035E0000CF08FC0823921E0920709F414C4E4F58D
:1035F0008D3221E0920709F402C42CF58130910547
:1036000009F4C3C3B4F4892B09F48EC31092AF013B
:10361000DF91CF911F910F91FF90EF90DF90CF90AE
:10362000BF90AF909F908F907F906F905F904F90E2
:1036300008958230910509F4D5C38C32914031F759
:103640000E94AE09E3CF8F3221E0920709F453C7FD
:103650000CF4DAC3803921E0920791F3813991406B
:10366000A9F610926205D2CF873921E0920709F4BA
:1036700042C7A4F4843921E0920709F4D3C30CF4BF
:10368000CEC3853921E0920709F4D0C38639914031
:1036900009F0BCCF81E080936005B8CF863F21E080
:1036A000920709F4CBC3B4F4843F21E0920741F2BE
:1036B000853F914009F0AACF8091710590917205E4
:1036C0000196833091050CF0B4C3909372058093FA
:1036D00071059CCF873F21E0920709F4D3C3883F4F
:1036E000914009F093CF80916B0590916C05019604
:1036F0008A3091050CF0D8C390936C0580936B05CC
:1037000085CF8D3B22E0920709F4CAC4CCF58C35F5
:1037100022E0920709F48BC414F5893522E0920760
:1037200009F45BC42CF48835924009F489CF6ECF3C
:103730008A3522E0920709F462C48B35924009F081
:1037400065CF8091220190912301019689309105E6
:103750000CF068C4909323018093220157CF8E35DB
:1037600022E0920709F489C40CF474C48F3522E076
:10377000920709F4C0C68C3B924009F461CF46CF52
:10378000803223E0920709F4D3C40CF06CC08F3B65
:1037900022E0920709F4A8C40CF494C4803C22E00F
:1037A000920709F4B3C4813C924009F02FCF809175
:1037B0006705909168052AE0289FB001299F700D48
:1037C0001124072E000C880B990B0E94AC306B0162
:1037D0007C016091650570916605072E000C880BD1
:1037E000990B0E94AC309B01AC01C701B6010E944D
:1037F000E4316B017C016091630570916405072ED3
:10380000000C880B990B0E94AC3020E030E040E2C5
:1038100051E40E9450329B01AC01C701B6010E94E5
:10382000E4319B01AC012093300530933105409386
:103830003205509333058091690590916A05892B73
:1038400069F460E070E0CB010E94E33160933005E1
:103850007093310580933205909333050E945D0C7F
:103860000E94AE09D3CE833223E0920709F47CC4D0
:10387000C4F4813223E0920709F467C48232934092
:1038800009F0C4CE82E090E090932F0580932E053E
:1038900090935D0580935C050E945D0C0E94AE09CB
:1038A000B5CE843223E0920709F46DC4853293408B
:1038B00009F0ACCE85E090E090932F0580932E0523
:1038C00090935D0580935C050E945D0C0E94AE099B
:1038D0009DCE8E3424E0920709F4F9C40CF095C013
:1038E0008B3823E0920709F406C60CF042C08638F4
:1038F00023E0920709F483C4F4F4883223E09207AA
:1039000009F46EC40CF45DC4843823E0920709F412
:1039100097CE8538934009F079CE8091300190910F
:103920003101853191050CF071CE019690933101F2
:10393000809330016BCE883823E0920709F47BC472
:103940000CF46BC4893823E0920709F482C48A38E6
:10395000934009F05BCE80912001909121018B3042
:1039600091050CF453CE0A97909321018093200186
:103970004DCE8C3E23E0920709F496C4CCF4893EE8
:1039800023E0920709F474C42CF4883E934009F4B0
:1039900057CE3CCE8A3E23E0920709F477C48B3E93
:1039A000934009F033CE10925705109256052ECE53
:1039B0008F3E23E0920709F49EC584F48D3E23E0F8
:1039C000920709F478C48E3E934009F01FCE83E03D
:1039D00090E0909357058093560518CE8C3424E0E0
:1039E000920709F42DCE8D34944009F00FCE8091CA
:1039F0002A0190912B0101968A3091050CF062C446
:103A000090932B0180932A0101CE823B24E0920700
:103A100009F4EBC40CF042C0833524E0920709F4AA
:103A2000A9C4F4F4803524E0920709F475C40CF4B9
:103A300061C4813524E0920709F481C48235944041
:103A400009F0E4CD809126019091270101978A30F9
:103A500091050CF488C49093270180932601D6CD5C
:103A6000853524E0920709F446C50CF497C4803BE1
:103A700024E0920709F4A6C4813B944009F0C6CD26
:103A80008091890590918A05893091050CF0AAC42E
:103A9000019690938A0580938905B8CD873B24E0F1
:103AA000920709F4E5C4F4F4843B24E0920709F496
:103AB000BCC40CF4AAC4853B24E0920709F4C5C435
:103AC000863B944009F0A2CD80917F0590918005BE
:103AD000893091050CF0C9C40196909380058093BC
:103AE0007F0594CD8A3B24E0920709F4E4C4BCF43A
:103AF000883B24E0920709F4CBC4893B944009F049
:103B000085CD8091790590917A05893091050CF0E9
:103B1000CFC4019690937A058093790577CD8B3B3E
:103B200024E0920709F4D7C48C3B944009F06ECD91
:103B3000A0918B05B0918C0560917F0570918005F7
:103B4000A617B70731F081E090E090937405809359
:103B50007305C0908905D0908A0540917D055091EC
:103B60007E05C416D50631F081E090E0909374058F
:103B700080937305E0908705F090880520917B0580
:103B800030917C05E216F30631F081E090E09093ED
:103B90007405809373050091850510918605A090AA
:103BA0007905B0907A050A151B0531F081E090E0A7
:103BB0009093740580937305C0918305D09184051B
:103BC0008090770590907805C815D90531F081E08F
:103BD00090E09093740580937305E0918105F091D6
:103BE00082056090750570907605E615F70531F051
:103BF00081E090E09093740580937305442443948E
:103C0000512C109709F0412CC201C114D10409F4C0
:103C10000196E114F10409F401960115110509F466
:103C20000196209709F40196309709F40196672BC5
:103C300009F40196452B09F40196232B09F401960A
:103C4000AB2809F40196892851F4672841F40A97B2
:103C500031F482E090E0909374058093730520EA3C
:103C600036E841E050E00E94EE3320E137E2C29EA8
:103C70004001C39E900CD29E900C1124092C000C84
:103C8000AA08BB08680D791D8A1D9B1D28EE33E02C
:103C9000E29E6001E39ED00CF29ED00C11240D2C0C
:103CA000000CEE08FF086C0D7D1D8E1D9F1D44E667
:103CB000409F9001419F300D11248901330F220B49
:103CC000330B600F711F821F931F2AE02C9F80010E
:103CD0002D9F100D1124012E000C220B330B600FB1
:103CE000711F821F931F8F01FF0F220B330B600F79
:103CF000711F821F931F0E94AC3060933405709334
:103D0000350580933605909337056093FE037093D5
:103D1000FF03809300049093010410921A040E9400
:103D20005D0C0E94AE0972CC8091400590914105D6
:103D30002091C801222391F08330910529F410923B
:103D400041051092400562CC8230910551F483E028
:103D500090E0909341058093400558CC82309105C6
:103D600071F38130910539F482E090E09093410540
:103D7000809340054BCC892B09F048CC81E090E042
:103D8000909341058093400541CC10923C051092E0
:103D90003D0510923E0510923F058091E6029091FC
:103DA000E702A091E802B091E902809302049093A7
:103DB0000304A0930404B09305048091340590910A
:103DC0003505A0913605B091370580930604909390
:103DD0000704A0930804B09309040E945D0C0E949C
:103DE000AE0914CC109238051092390510923A059C
:103DF00010923B050E945D0C0E94AE0907CC109208
:103E00005F0510925E0502CC81E090E090935F0523
:103E100080935E05FBCB81E080936205F7CB109227
:103E20006105F4CB81E080936105F0CB10926005D1
:103E3000EDCB1092720510927105E8CB80916F0561
:103E40009091700501968A309105BCF490937005AD
:103E500080936F058091710590917205029709F02A
:103E6000D5CB80916F059091700504970CF4CECB63
:103E70001092700510926F05C9CB109270051092C8
:103E80006F05E8CF80916D0590916E0501968630A3
:103E900091052CF490936E0580936D05B7CB10922D
:103EA0006E0510926D05B2CB10926C0510926B05E9
:103EB000ADCB80916D0590916E051AE0189F700151
:103EC000199FF00C112460916B0570916C05E60E42
:103ED000F71E8091710590917205189FE001199F5E
:103EE000D00D112460916F0570917005C60FD71F1A
:103EF0000C2FD1E0D093A50588E68093C7051092DA
:103F0000A6051092C80560E085E696E00E940F08BD
:103F100060E085E696E00E940F088E2D612F0E94DA
:103F20008733682F660F680F660F6E0D85E696E083
:103F30000E940F08802F612F0E948733682F660F21
:103F4000680F660F6C0F85E696E00E940F0860E030
:103F500085E696E00E940F0864E085E696E00E9400
:103F60000F0868E085E696E00E940F0868E185E6A4
:103F700096E00E940F080E94D906D093A5051092E2
:103F8000A6051092C8056FE085E696E00E940F082E
:103F90000E94D90661E088E60E940A061092A405F4
:103FA0008093A30585E696E00E94CF07C82FD093A3
:103FB000A5051092A6051092C8056FE085E696E06B
:103FC0000E940F086C2F6F7785E696E00E940F081D
:103FD0000E94D9060E94AE0919CB80915C05909190
:103FE0005D050196893091052CF490935D058093D1
:103FF0005C050CCB10925D0510925C0507CB80919F
:104000005C0590915D05019797FD05C090935D0556
:1040100080935C05FBCA88E090E090935D058093F7
:104020005C05F4CA1092230110922201EFCA80911C
:10403000220190912301019797FD05C090932301E0
:1040400080932201E3CA88E090E09093230180935B
:104050002201DCCA80915805909159050A9685384D
:1040600023E092072CF49093590580935805CECA0B
:104070001092590510925805C9CA8091580590911F
:1040800059050A9797FD05C09093590580935805E7
:10409000BDCA84E893E09093590580935805B6CA49
:1040A0008091690590916A050196823091052CF402
:1040B00090936A0580936905A9CA10926A051092C7
:1040C0006905A4CA809167059091680501968A30B8
:1040D00091052CF4909368058093670597CA109218
:1040E00068051092670592CA8091650590916605F2
:1040F00001968A3091052CF49093660580936505AE
:1041000085CA109266051092650580CA8091630584
:104110009091640501968A3091052CF49093640582
:104120008093630573CA10926405109263056ECA8A
:1041300010922F0510922E0510925D0510925C05CD
:104140000E945D0C0E94AE0961CA81E090E09093EC
:104150002F0580932E0590935D0580935C050E944A
:104160005D0C0E94AE0952CA83E090E090932F0547
:1041700080932E0590935D0580935C050E945D0CF5
:104180000E94AE0943CA84E090E090932F0580938B
:104190002E0590935D0580935C050E945D0C0E9446
:1041A000AE0934CA87E090E090932F0580932E05E6
:1041B00090935D0580935C050E945D0C0E94AE09A2
:1041C00025CA86E090E090932F0580932E0590936A
:1041D0005D0580935C050E945D0C0E94AE0916CAC5
:1041E00088E090E090932F0580932E0590935D05D5
:1041F00080935C050E945D0C0E94AE0907CA809105
:104200003001909131018B3091050CF4FFC9019779
:104210009093310180933001F9C980912E019091E2
:104220002F018E3391050CF0F1C9019690932F0167
:1042300080932E01EBC980912E0190912F01843241
:1042400091050CF4E3C9019790932F0180932E01FF
:10425000DDC98091200190912101803921E09207F0
:104260000CF0D4C90A969093210180932001CEC905
:1042700080912C0190912D01883791050CF0C6C9D1
:10428000019690932D0180932C01C0C980912C013F
:1042900090912D01873491050CF4B8C90197909342
:1042A0002D0180932C01B2C981E090E090935705D5
:1042B00080935605ABC982E090E0909357058093B8
:1042C0005605A4C910922B0110922A019FC9809112
:1042D0002A0190912B01019797FD05C090932B0126
:1042E00080932A0193C989E090E090932B018093F9
:1042F0002A018CC9809128019091290101968A3068
:1043000091052CF490932901809328017FC9109284
:104310002901109228017AC98091280190912901E0
:10432000019797FD05C090932901809328016EC9DC
:1043300089E090E0909329018093280167C98091DA
:104340002601909127010196833391052CF49093D7
:104350002701809326015AC98AE090E090932701B3
:104360008093260153C982E390E0909327018093C4
:1043700026014CC980912401909125010196833337
:1043800091052CF490932501809324013FC98AE084
:1043900090E0909325018093240138C980912401F5
:1043A0009091250101978A3091052CF09093250179
:1043B000809324012BC982E390E0909325018093A0
:1043C000240124C980918B0590918C058930910539
:1043D00034F4019690938C0580938B0517C990E077
:1043E00080E0F8CF90E080E054CB809187059091F9
:1043F00088058930910534F401969093880580935F
:10440000870504C990E080E0F8CF80918505909100
:1044100086058930910534F4019690938605809342
:104420008505F4C890E080E0F8CF809183059091F5
:1044300084058930910534F4019690938405809326
:104440008305E4C890E080E0F8CF809181059091E9
:1044500082058930910534F401969093820580930A
:104460008105D4C890E080E0F8CF90E080E035CBC3
:1044700080917D0590917E058930910534F40196F7
:1044800090937E0580937D05C1C890E080E0F8CFD1
:1044900080917B0590917C058930910534F40196DB
:1044A00090937C0580937B05B1C890E080E0F8CFC5
:1044B00090E080E02FCB809177059091780589304E
:1044C000910534F4019690937805809377059EC802
:1044D00090E080E0F8CF8091750590917605893065
:1044E000910534F4019690937605809375058EC8F6
:1044F00090E080E0F8CF0E945D0C0E94AE0986C873
:104500001F920F920FB60F9211248F939F93809159
:10451000E1009091E100937F9093E10083FF0FC051
:104520001092E90091E09093EB001092EC0092E37E
:104530009093ED0010929E0598E09093F00082FF1A
:1045400022C093E09093E9009091F200992319F032
:104550009AE39093E8009091F703992341F09091AA
:10456000F70391509093F703911101C05D9A9091D8
:104570009D05992341F090919D05915090939D0543
:10458000911101C0289A84FF18C08091E2008E7EAC
:1045900081608093E2008091E1008F7E8093E10052
:1045A0008091F8038E7E80618093F8039F918F91B4
:1045B0000F900FBE0F901F90189580FFF7CF80913E
:1045C000E2008E7E80618093E2008091E1008E7E29
:1045D0008093E1008091F8038E7E8160E5CF1F9289
:1045E0000F920FB60F921124CF92DF92EF92FF92AB
:1045F0000F931F932F933F934F935F936F937F93EB
:104600008F939F93AF93BF93EF93FF93CF93DF93DA
:10461000CDB7DEB76C97DEBFCDBF1092E9008091B9
:10462000E80083FF25C068E0CE0145960E94430262
:1046300082EF8093E8008D8987FF39C09091E80070
:1046400090FFFCCF982F907609F034C19E894F8956
:10465000588D2F89F88C911131C0803861F5809187
:10466000F9038093F1001092F1008EEF8093E8003F
:104670006C960FB6F894DEBF0FBECDBFDF91CF9121
:10468000FF91EF91BF91AF919F918F917F916F912A
:104690005F914F913F912F911F910F91FF90EF905C
:1046A000DF90CF900F900FBE0F901F9018959EEF48
:1046B0009093E800C7CF1092F100D5CF913059F414
:1046C0008111D3CF4130510581F68091F9038D7F5F
:1046D0008093F903CACF933049F48111C6CF41309A
:1046E000510519F68091F9038260F2CF953041F4BB
:1046F0008091E80080FFFCCF20682093E300B5CFD5
:10470000963009F0A9C00B8D1C8D22E01092E900B3
:104710001092F5031092F403F2122EC01092F303DC
:104720001092F2030E9412021F8299E09983FA828A
:1047300091E09E8390EA98879AEF99872091F403FD
:104740003091F503275F3F4F3C832B838D8310927D
:10475000E9001092F5031092F4031093F303009311
:10476000F20349E050E0BE016F5F7F4F80E00E949E
:10477000EC010E94120279CF1093F3030093F2032D
:104780000E947701DC0112960D911C910115110513
:1047900009F451C1D801ED91FC910480F581E02D1F
:1047A000BE016B5E7F4FC8010995009709F03EC1BD
:1047B000F80100851185EACFF3E0FF120EC08F8962
:1047C000882309F440C0823061F440E860E183EA64
:1047D00091E00E94B901811148CF81E28093EB0002
:1047E00047CF813029F440E86BE087E991E0F1CFD1
:1047F000833099F70E947701DC011296ED90FC90CE
:104800008E010F5F1F4F6801E114F10479F0D701A9
:10481000ED91FC910680F781E02DB801C701099563
:10482000080F111DF701E084F184EECFD8011C922E
:10483000F60101900020E9F73197BF016C197D095D
:1048400040E0C601C6CF61E871E0FB01449150E051
:1048500080E80E94EC0109CF973009F4BECF983070
:1048600021F481E08093F10000CF993009F0FDCE72
:10487000837009F0B2CFEDE4F1E081E031E096E33E
:104880002191222371F08093E9003093EB00DF0146
:1048900011972C912093EC009093ED008F5F87305F
:1048A00079F78EE78093EA001092EA008F8980936F
:1048B0009E05DBCE8B8D9C8D1092E9001092F50346
:1048C0001092F4039093F3038093F203898D811186
:1048D00092C08E899D89913A49F4813209F07DCF49
:1048E00047E050E06CE071E080E0B3CF913209F036
:1048F00074CF833269F48F89988DB0E0A0E0809303
:10490000080190930901A0930A01B0930B01ADCE69
:10491000803269F48091E80082FFFCCF67E08CE090
:1049200091E00E9443028BEF8093E8009ECE82329A
:1049300009F09BCE8F8980931301EEEFFFE78591FD
:1049400094918B3F9C4D51F1E0E0F8E080910C0197
:1049500090910D01A0910E01B0910F01803B944008
:10496000A105B105F1F48091130180FD1AC0EE3F5D
:104970008AE0F80789F587E797E79183808380913C
:1049800060008093F60388E19BE00FB6F894A89549
:10499000809360000FBE9093600067CEEEEFFAE068
:1049A000D5CF808191818737974709F05ECEA89552
:1049B000809160008861809360008091F60380930D
:1049C0006000EE3F2AE0F20789F08091FE0A9091A4
:1049D000FF0A9183808349CE808191818737980730
:1049E00051F29093FF0A8093FE0AC5CF1092FF0AFE
:1049F0001092FE0A3ACE0E947701DC0112960D91C8
:104A00001C910115110509F4E8CED801ED91FC9136
:104A10000190F081E02DBE016B5E7F4FC8010995CA
:104A2000811123CEF80100851185EBCF18161906E8
:104A30000CF41BCED2CEF1E0FF12BECE65E871E0E1
:104A400004CF1F920F920FB60F9211242F933F9312
:104A50008F939F93AF93BF938091EA039091EB0361
:104A6000A091EC03B091ED033091E90323E0230F13
:104A70002D3758F50196A11DB11D2093E9038093B0
:104A8000EA039093EB03A093EC03B093ED038091C2
:104A9000EE039091EF03A091F003B091F103019622
:104AA000A11DB11D8093EE039093EF03A093F0033B
:104AB000B093F103BF91AF919F918F913F912F914F
:104AC0000F900FBE0F901F90189526E8230F0296A7
:104AD000A11DB11DD2CF1F920F920FB60F921124BC
:104AE0002F933F934F935F936F937F938F939F93F6
:104AF000AF93BF93EF93FF93E0911C01F0911D01E1
:104B00000995FF91EF91BF91AF919F918F917F9107
:104B10006F915F914F913F912F910F900FBE0F902A
:104B20001F9018951F920F920FB60F9211242F937A
:104B30003F934F935F936F937F938F939F93AF9325
:104B4000BF93EF93FF93E0911A01F0911B01099538
:104B5000FF91EF91BF91AF919F918F917F916F9155
:104B60005F914F913F912F910F900FBE0F901F902B
:104B700018951F920F920FB60F9211242F933F9307
:104B80004F935F936F937F938F939F93AF93BF9355
:104B9000EF93FF93E0911801F09119010995FF91AE
:104BA000EF91BF91AF919F918F917F916F915F91A5
:104BB0004F913F912F910F900FBE0F901F9018951E
:104BC0001F920F920FB60F9211242F933F934F9382
:104BD0005F936F937F938F939F93AF93BF93EF9365
:104BE000FF93E0911601F09117010995FF91EF9164
:104BF000BF91AF919F918F917F916F915F914F91F5
:104C00003F912F910F900FBE0F901F9018951F92FC
:104C10000F920FB60F9211242F933F934F935F93F0
:104C20006F937F938F939F93AF93BF93EF93FF9374
:104C3000E0911401F09115010995FF91EF91BF9159
:104C4000AF919F918F917F916F915F914F913F9124
:104C50002F910F900FBE0F901F9018951F920F92DB
:104C60000FB60F9211242F933F934F935F936F933F
:104C70007F938F939F93AF93BF93EF93FF93E091B5
:104C8000FC03F091FD03309749F0A685B785858533
:104C9000968D91FF14C09C918923A1F4FF91EF910F
:104CA000BF91AF919F918F917F916F915F914F9144
:104CB0003F912F910F900FBE0F901F9018959C91D0
:104CC000892361F7A389B4899C918589809589237B
:104CD0008C93868997890197F1F7608D718DA685F0
:104CE000B785558538E020E0CB010197F1F7822F99
:104CF00090E095958795282F4C91452309F02068E1
:104D0000315091F7868D81FD20958091FB0390E0D5
:104D100001968F7399273091FA03381799F0A09173
:104D2000FB03B0E0A755BC4F2C938093FB03828D0F
:104D3000938D0197F1F7A389B4898C919589892B7B
:104D40008C93ACCF868D8160868FF1CF1F920F92AE
:104D50000FB60F9211242F933F934F935F936F934E
:104D60007F938F939F93AF93BF93EF93FF93809124
:104D7000B900887F803609F44AC0F0F5883209F41A
:104D8000A7C018F5803109F49BC0B8F4882309F452
:104D9000F9C0883009F494C0FF91EF91BF91AF91B1
:104DA0009F918F917F916F915F914F913F912F9143
:104DB0000F900FBE0F901F901895883109F488C08E
:104DC000803251F78093ED0514C0803409F49DC002
:104DD00040F48033B9F38833F9F68093ED0585EC20
:104DE000B0C0803509F485C0883509F496C0883490
:104DF00099F60E94AF0BD0CF883909F48CC038F5F2
:104E0000883729F050F4883611F0803729F683E08E
:104E100080930F061092A80357C0883809F47BC00E
:104E2000803919F0803809F0B7CF8091A80380321B
:104E300008F071C0E091A80381E08E0F8093A80371
:104E40008091BB00F0E0E857FC4F80833DC0803B81
:104E500039F0E0F4803A09F479C0883A09F09CCF3F
:104E600084E080930F061092870310928603E091EE
:104E7000A105F091A20509958091860381110FC0CB
:104E800081E0809386031092660309C0803C09F498
:104E9000A6CF883C09F4A3CF883B09F07DCFE091F1
:104EA000870381E08E0F80938703F0E0EA59FC4F7F
:104EB00080818093BB00909187038091860329C0F5
:104EC0008091EA058093BB0085EC8093BC0064CFA1
:104ED0009091EC058091EB05981758F5E091EC0561
:104EE00081E08E0F8093EC05F0E0E753FA4F80816C
:104EF000E9CFE091EC0581E08E0F8093EC05809185
:104F0000BB00F0E0E753FA4F80839091EC0580916D
:104F1000EB059817C8F285E8D8CFE091EC0581E061
:104F20008E0F8093EC058091BB00F0E0E753FA4FC1
:104F300080838091EE0581115CCF81E08093E9054B
:104F400084EA8093BC0010920F0626CF85EC8093F4
:104F5000BC0010920F068091A803803230F4E091DB
:104F6000A803F0E0E857FC4F10826091A80370E0BE
:104F7000E0919F05F091A00588E893E009951092D3
:104F8000A8030ACF1092ED0534CF109218061092A4
:104F9000170688EE93E0A0E0B0E0809319069093A6
:104FA0001A06A0931B06B0931C0627E531E0309348
:104FB0001606209315062FEF3FEF3093220620931D
:104FC00021061092680610926706809369069093F6
:104FD0006A06A0936B06B0936C0629E631E0309325
:104FE00066062093650627E52093900610927406C6
:104FF000109273068093750690937606A0937706B9
:10500000B09378068BE791E09093720680937106D7
:10501000109288061092870610928A0610928906CE
:1050200010928C0610928B0610928E0610928D06AE
:1050300060918F066E7F6D7F60938F0666956170BD
:1050400081E068278FE00E94730361E08FE00E9497
:10505000A103EEEFF1E0E491E0938106EFEDF1E0E2
:10506000E491F0E0EE0FFF1FEE53FE4F8591949117
:10507000909383068093820660E080E10E94A10302
:1050800080918F0681FD04C061E080E10E9473037E
:1050900080E180937D06EFEFF1E0E491E0937E06FE
:1050A000E0EEF1E0E491F0E0EE0FFF1FEC54FE4F74
:1050B000859194919093800680937F060895CF9375
:1050C000DF93CDB7DEB7CA55D1090FB6F894DEBF6E
:1050D0000FBECDBF789484B5826084BD84B58160F5
:1050E00084BD85B5826085BD85B5816085BD8091B3
:1050F0006E00816080936E0010928100809181002B
:105100008260809381008091810081608093810022
:105110008091800081608093800080919100826006
:1051200080939100809191008160809391008091A3
:1051300090008160809390008091C1008460809392
:10514000C1008091C10082608093C1008091C10044
:1051500081608093C1008091C30081608093C3000F
:105160008091C00082608093C0008091C200816005
:105170008093C20080917A00846080937A0080914D
:105180007A00826080937A0080917A0081608093B7
:105190007A0080917A00806880937A0010929E0550
:1051A0001092F9031092F8038091D70081608093E8
:1051B000D70080EA8093D80089B5806189BD89B520
:1051C000826089BD09B400FEFDCF61E070E080E03F
:1051D00090E00E941B048091D8008F7C80618093B6
:1051E000D8008091E000807F8093E0008091E10012
:1051F0008E7E8093E1008DE08093E200559A209AA4
:10520000E1E2F4E08FEFDF011D928A95E9F78FEF7D
:105210009FEF909322068093210610928C061092A5
:105220008B0610928A0610928906109288061092B8
:1052300087068DE991E090938E0680938D0680918C
:105240007D0628EF280F243048F092EF980F943015
:1052500028F096EE980F933008F057C04DEB50E0D1
:1052600050938806409387064BE951E050938A0695
:10527000409389064CE251E050938C0640938B0694
:10528000243050F092EF980F943030F096EE980F53
:10529000F0E0E0E0933010F4E8E6F0E090812430B4
:1052A00048F022EF280F243028F08A51F0E0E0E0A7
:1052B000833010F4E8E6F0E09160908320917D0661
:1052C00038EF320F343048F082EF820F843028F00C
:1052D00086EE820F833008F028C58BE690E090932D
:1052E000850680938406343008F022C52450330BA1
:1052F00081E001C0880F2A95EAF7809386068091A5
:105300008D0690918E060197F1F780918B06909112
:105310008C06892B49F1E091FC03F091FD03B6E086
:10532000E137FB0709F1309739F0A389B4899C91E3
:105330008589809589238C9380918F068E7F8093B9
:105340008F061092FB031092FA0381E796E0909388
:10535000FD038093FC03E0918406F0918506808133
:1053600090918606892B808360E080E00E94A103F3
:1053700060E081E00E94A10360E084E10E94A1035B
:1053800060E085E10E94A10360E086E10E94A10344
:1053900060E084E00E94A10360E085E00E94A10338
:1053A00060E089E00E94A10360E08AE00E94A1031E
:1053B00060E08BE00E94A10360E088E00E94A1030E
:1053C00060E087E00E94A10361E08CE00E94A103FD
:1053D00060E08CE00E9473030E94D2050E94D20517
:1053E0000E94D2051092100410921104109212041F
:1053F000109213048BEB99E090931901809318019C
:10540000809169008F7C806180936900EA9A89EDC0
:1054100098E090931B0180931A01809169008F732B
:10542000806480936900EB9AAE014F5F5F4F8AE51D
:10543000FA0111928A95E9F760E290E080E00E941B
:10544000FF09AE014F5D5F4F60E280E290E00E9495
:10545000FF09AE014F5B5F4F6AE080E490E00E947D
:10546000FF0909811A814B815C816D817E818F8169
:105470009885A985BA8580933C0590933D05A093B6
:105480003E05B0933F058B859C85AD85BE85809399
:10549000380590933905A0933A05B0933B058F8565
:1054A0009889A989BA898093300590933105A09392
:1054B0003205B09333058B89809362058C899D8971
:1054C00090932F0580932E058E8995EF980F943336
:1054D00028F490E090933101809330018F8995EF0B
:1054E000980F943328F490E090932F0180932E012D
:1054F000888D90E090932D0180932C01898D9A8D59
:105500000817190709F09CC08B8D9C8DAD8DBE8D41
:1055100080930A0490930B04A0930C04B0930D04A1
:105520008F8D98A1A9A1BAA1809306049093070436
:10553000A0930804B09309048BA19CA19093290522
:10554000809328058DA19EA1909327058093260521
:105550008FA198A50817190709F072C089A59AA507
:10556000ABA5BCA58093020490930304A09304040C
:10557000B09305048DA59EA50817190709F0EBC384
:105580008FA598A9A9A9BAA9809334059093350548
:10559000A0933605B09337058BA99CA90817190766
:1055A00009F04EC08DA9809361058EA98093600596
:1055B0008FA998AD90932B0180932A0189AD9AAD64
:1055C00090932901809328018BAD9CAD9093270186
:1055D000809326018DAD9EAD90932501809324018B
:1055E00021968EAD9FAD219790935F0580935E05C8
:1055F00023968EAD9FAD239790935D0580935C05B8
:1056000025968EAD9FAD259790932301809322011F
:1056100027968EAD9FAD2797909359058093580597
:1056200029968EAD9FAD2997909357058093560587
:105630002B968EAD9FAD2B979093210180932001E7
:105640008091340590913505A0913605B0913705CC
:105650008093FE039093FF03A0930004B093010492
:105660000031174009F08BC380912A0190912B01E2
:105670000A9730F082E090E090932B0180932A010A
:1056800080912801909129010A9730F084E090E000
:105690009093290180932801809126019091270100
:1056A0000A97899730F084E190E0909327018093E6
:1056B000260180912401909125010A97899730F065
:1056C00084E190E0909325018093240180915E0510
:1056D00090915F05029720F010925F0510925E0591
:1056E00080915C0590915D05099720F010925D0511
:1056F00010925C058091220190912301099730F06E
:1057000086E090E0909323018093220180915805D8
:10571000909159058538934020F0109259051092C8
:1057200058058091560590915705049720F01092E6
:1057300057051092560580912001909121010A97FA
:105740008738914008F014C3F0E0AF2EF0E0BF2E90
:10575000CC24C394A0EB8A2EA4E09A2EB8E67B2E2C
:1057600088E00E944A030197A9F487E00E944A0357
:10577000019781F4809120048111ACC3C092200470
:105780000E94D20460931C0470931D0480931E0435
:1057900090931F0488E00E944A03019779F4809156
:1057A000190481110BC0C092190480915E0590917B
:1057B0005F05892B09F0B1C30E94930987E00E941D
:1057C0004A03019779F48091180481110BC0C092AB
:1057D000180480915E0590915F05892B09F0A0C3A4
:1057E0000E949B1A0E94D204009114041091150487
:1057F0002091160430911704601B710B820B930BE0
:105800006739710581059105E0F00E94D20460932B
:10581000140470931504809316049093170488E081
:105820000E944A03892B31F410921904109220042B
:1058300010921B0487E00E944A03892B11F41092F6
:10584000180400918F051091900580918D0590911D
:105850008E05080F191F0115110509F06DC30E946F
:10586000620DC092A5057092C7051092A605109210
:10587000C80560E085E696E00E940F080E94D90600
:1058800067E088E60E940A061092A4058093A305AB
:1058900085E696E00E94CF078F77282F30E094E0CE
:1058A000359527959A95E1F7922F990F990FF22E3A
:1058B000F91AFF0CF80E85E696E00E94CF079C01CE
:1058C00044E0359527954A95E1F72F703327922FBD
:1058D000990F990F122F191B110F180F85E696E0DB
:1058E0000E94CF079C0154E0359527955A95E1F722
:1058F0002F703327922F990F990F022F091B000F3A
:10590000080F85E696E00E94CF0785E696E00E94A4
:10591000CF079C0164E0359527956A95E1F72F70D4
:105920003327922F990F990FE22EE91AEE0CE80E09
:1059300085E696E00E94CF079C0174E03595279597
:105940007A95E1F72F703327922F990F990FD22E66
:10595000D91ADD0CD80E85E696E00E94CF079C018F
:10596000E4E035952795EA95E1F72F703327922FDC
:10597000990F990F291B220F820F8983DA82EB82FC
:105980000C831D83FE8285E991E00E94C50A609127
:10599000540570915505072E000C880B990B20912A
:1059A0006205222351F00E94AA302AED3EEF4DEC11
:1059B0005FE30E940B310E94C932882799274AE091
:1059C0000E94510A82EA91E00E94C50A6091520544
:1059D0007091530590E080E04AE00E94510A82EA0B
:1059E00091E00E94C50A80915005909151050E9456
:1059F000950A82EA91E00E94C50A60914C05709177
:105A00004D0580914E0590914F0542E00E94D30ACA
:105A100082EA91E00E94C50A602F70E090E080E089
:105A20004AE00E94510A82EA91E00E94C50A612F71
:105A300070E090E080E04AE00E94510A82EA91E042
:105A40000E94C50A80911E0190911F010E94950A33
:105A500082EA91E00E94C50A80914A0590914B0527
:105A60000E94950A82EA91E00E94C50A8091480549
:105A7000909149050E94950A82EA91E00E94C50A28
:105A800080914605909147050E94950A82EA91E02F
:105A90000E94C50A80914405909145050E94950A8F
:105AA00082EA91E00E94C50A8091420590914305E7
:105AB0000E94950A82EA91E00E94C50A20918F0512
:105AC0003091900580918D0590918E05820F931FE6
:105AD0000E94950A82EA91E00E94C50A80914005E1
