:020000040000FA
:100000000C947A010C94CC240C94A1240C947624A6
:100010000C944B240C9420240C94F5230C94CA23A8
:100020000C949F230C94AB010C94AB010C94AB018A
:100030000C94AB010C94AB010C94AB010C94AB0190
:100040000C94AB010C94AB010C94AB010C94AB0180
:100050000C94AB010C94AB010C94AB010C945523A4
:100060000C94AB010C941F230C94F5220C94AB015F
:100070000C94AB010C94AB010C94AB010C94AB0150
:100080000C94AB010C94AB010C94AB010C94AB0140
:100090000C94AB010C94AB010C94AB010C94F724C1
:1000A0000C94AB010C94AB010C94AB010C94AB0120
:1000B0000C94AB010C94AB010C94AB010C94AB0110
:1000C0000C94AB010C94AB010C94AB010C94BF22CB
:1000D0000C9495220C94AB010C94AB010C94AB01E5
:1000E0000C94AB0108000000BE922449123EABAA5A
:1000F000AA2ABECDCCCC4C3E00000080BEABAAAA42
:10010000AA3E00000000BF000000803F0000000089
:1001100000084178D3BB4387D1133D190E3CC3BDC2
:100120004282AD2B3E68EC8276BED98FE1A93E4C6F
:1001300080EFFFBE01C4FF7F3F00000000000C9471
:1001400053030C9418030C9498070C948F060C948A
:100150000E030C946D060C94B4010C9438040C94AA
:10016000E3010C944F030C9441030C9437030C945B
:1001700033030C9429030C942D030C941B260C942C
:1001800056020C946C060C9414020C94AF070C9459
:1001900020030C943B030C9406020C944E030C9425
:1001A000AD010C94F2010C94B6010C94A3020C94D2
:1001B00045030C9449030C9491080C9414030C947B
:1001C0007C060C9423030C94B5010C941C030C9432
:1001D000BC0600002100240027002A002D0030006A
:1001E000330001010000040107010A0100002200A0
:1001F000250028002B002E003100340002010000F1
:10020000050108010B010000200023002600290041
:100210002C002F003200000100000301060109013B
:1002200005050505070508080808020202020A0A72
:100230000808040404040101010101010101030390
:10024000030303030303040707070C0C0C0C0C0C3B
:100250000C0C0202020206060606060606060B0B38
:100260000B0B0B0B0B0B0102102020080810204079
:10027000102040800201020108040201010204086A
:1002800010204080804020100804020180040201F8
:100290008040201008040201080402010102040841
:1002A00010204080010204081020408000000A0B4A
:1002B00002090C0D0E0807030401000000000000F5
:1002C000000000000000000000000000000000002E
:1002D00000000000000000001211100000000000EB
:1002E000000000000000000000000000000000000E
:1002F00000001B2611241FBECFEFD1E2DEBFCDBF11
:1003000000E00CBF27E0A6E8B2E001C01D92AE3EBF
:10031000B207E1F712E0A0E0B2E0EEE7F3E600E0BA
:100320000BBF02C007900D92A638B107D9F711E0B4
:10033000CAE7D1E000E006C021970109802FFE0145
:100340000E949231C937D10780E00807A9F70E94BF
:100350007D260C94BD310C9400008091350690915F
:100360003606891B990B089508950895AF92BF92A0
:10037000CF92DF92EF92FF920F931F93CF93DF9371
:100380006C017B018B01040F151FEB015E01AE18A0
:10039000BF08C017D10759F06991D601ED91FC91C2
:1003A0000190F081E02DC6011995892B79F7C501DF
:1003B000DF91CF911F910F91FF90EF90DF90CF9041
:1003C000BF90AF900895FC01538D448D252F30E0F0
:1003D000842F90E0821B930B541710F0CF96089552
:1003E00001970895FC01918D828D981761F0A28D7F
:1003F000AE0FBF2FB11D5D968C91928D9F5F9F7345
:10040000928F90E008958FEF9FEF0895FC01918DFA
:10041000828D981731F0828DE80FF11D858D90E067
:1004200008958FEF9FEF0895FC01918D228D892F04
:1004300090E0805C9F4F821B91098F7399270895EC
:1004400087EA96E00E94140221E0892B09F420E05B
:10045000822F089584E497E00E94140221E0892B02
:1004600009F420E0822F0895FC01A48DA80FB92F74
:10047000B11DA35ABF4F2C91848D90E001968F73CC
:100480009927848FA689B7892C93A089B1898C91EB
:10049000837080648C93938D848D981306C002883A
:1004A000F389E02D80818F7D80830895EF92FF9204
:1004B0000F931F93CF93DF93EC0181E0888F9B8D87
:1004C0008C8D98131AC0E889F989808185FF15C041
:1004D0009FB7F894EE89FF896083E889F989808164
:1004E0008370806480839FBF81E090E0DF91CF9133
:1004F0001F910F91FF90EF900895F62E0B8D10E055
:100500000F5F1F4F0F731127E02E8C8D8E110CC0C3
:100510000FB607FCFACFE889F989808185FFF5CF0E
:10052000CE010E943402F1CFEB8DEC0FFD2FF11DB7
:10053000E35AFF4FF0829FB7F8940B8FEA89FB894B
:1005400080818062CFCFCF93DF93EC01888D8823A9
:10055000B9F0AA89BB89E889F9898C9185FD03C026
:10056000808186FD0DC00FB607FCF7CF8C9185FF0B
:10057000F2CF808185FFEDCFCE010E943402E9CF1A
:10058000DF91CF91089580E090E0892B29F00E94BF
:100590002A0281110E94000080E090E0892B49F03E
:1005A00080E090E0892B29F00E94000081110E94D8
:1005B000000080E090E0892B29F00E942002811148
:1005C0000E94000080E090E0892B49F080E090E0FC
:1005D000892B29F00E94000081110C9400000895DD
:1005E0008150823108F05AC0E82FF0E08827E450AB
:1005F000FD4F8F4F0C9492311C0320030E03140304
:1006000018034E03230329032D03330337033B034E
:10061000410345034E0349034F0353038091800078
:100620008F77809380000895809180008F7DF9CF2F
:1006300080918000877FF5CF84B58F7784BD089542
:1006400084B58F7DFBCF8091B0008F778093B00011
:1006500008958091B0008F7DF9CF809190008F77C1
:10066000809390000895809190008F7DF9CF8091C4
:100670009000877FF5CF8091A0008F778093A000B6
:1006800008958091A0008F7DF9CF8091A000877F91
:10069000F5CF809120018F7780932001089580917C
:1006A00020018F7DF9CF80912001877FF5CFCF93F7
:1006B000DF93282F30E0F901E455FD4F8491F901D3
:1006C000EA59FD4FD491F901E05EFD4FC491CC236E
:1006D000A1F081110E94F002EC2FF0E0EE0FFF1F5D
:1006E000EA5FFD4FA591B491EC91ED2381E090E09C
:1006F00009F480E0DF91CF91089580E090E0FACF97
:100700001F93CF93DF93282F30E0F901E455FD4F7D
:100710008491F901EA59FD4FD491F901E05EFD4F52
:10072000C491CC23A9F0162F81110E94F002EC2F66
:10073000F0E0EE0FFF1FE451FE4FA591B4918FB78B
:10074000F894EC91111108C0D095DE23DC938FBF93
:10075000DF91CF911F910895DE2BF8CFCF93DF93D8
:1007600090E0FC01EA59FD4F2491805E9D4FFC0111
:1007700084918823C9F090E0880F991FFC01EE5204
:10078000FE4FA591B491FC01E451FE4FC591D49167
:1007900061110DC09FB7F8948C91209582238C93A2
:1007A0008881282328839FBFDF91CF9108956230ED
:1007B00051F49FB7F8943C91822F809583238C93BA
:1007C000E8812E2BEFCF8FB7F894EC912E2B2C9342
:1007D0008FBFEACF863308F0865320917B00982F95
:1007E0009870277F922B90937B0087708064809312
:1007F0007C0080917A00806480937A0080917A00F6
:1008000086FDFCCF809178009091790008953FB7E4
:10081000F8948091960490919704A0919804B091D7
:10082000990426B5A89B05C02F3F19F00196A11D7C
:10083000B11D3FBFBA2FA92F982F8827BC01CD012A
:10084000620F711D811D911D42E0660F771F881F89
:10085000991F4A95D1F708952FB7F89460919204A3
:100860007091930480919404909195042FBF089502
:10087000089520916E04260F3327331F213231054E
:10088000ECF42091A106FC0190E080E0243069F0B6
:1008900082E00895A0916E042191AC01425B5B4F10
:1008A000A40FB52FB11D2C930196861798F3809154
:1008B0006E04680F60936E0480E0089581E00895EF
:1008C0001092A10681E08093800610927B0661E081
:1008D00084E10E94800361E085E10E948003E9EBEE
:1008E000F0E080818E7F808380818D7F808388E4AB
:1008F0008093B80085E48093BC000895109236067A
:10090000109235061092380610925A060E94600422
:1009100084EB91E0909334068093330685EB91E06D
:1009200090933206809331060895CF93DF9391E040
:1009300090934D048823B9F0C091B800D091BA00CB
:100940008091BC008A7B8093BC0060E084E10E94BF
:10095000800360E085E10E9480030E946004D093E0
:10096000BA00C093B800DF91CF910895CF92DF9283
:10097000EF92FF920F931F93CF93DF93D82FC62F41
:10098000613208F098C00E9407046B017C018091DD
:10099000A10681116BC081E08093A106809380063F
:1009A0009FEF90937F0610927E069C0F90937D069A
:1009B00080937C0680917C06DD0FD82BD0937C063B
:1009C00080917B06813009F078C010927B060E94EE
:1009D00007046B017C0180917C068093BB008091B1
:1009E000A3069091A406A091A506B091A606892B16
:1009F0008A2B8B2BA1F00E9407040091A306109173
:100A0000A4062091A5063091A6066C197D098E09D1
:100A10009F09061717072807390708F448C080916F
:100A2000BC0083FDD8CF85EC8093BC000E940704F6
:100A30006B017C018091A106813009F440C0809156
:100A40007E068C1710F4C0917E06EBE5F6E0A1E877
:100A5000B6E080E08C1355C08C2FDF91CF911F91B1
:100A60000F91FF90EF90DF90CF9008958091A306B3
:100A70009091A406A091A506B091A606892B8A2B79
:100A80008B2B09F484CF0E9407040091A3061091D8
:100A9000A4062091A5063091A6066C197D098E0941
:100AA0009F09061717072807390708F070CF8091AC
:100AB000A2060E949504C0E0CFCF85EEB5CF80910D
:100AC000A3069091A406A091A506B091A606892B35
:100AD0008A2B8B2B09F4AECF0E9407040091A3064A
:100AE0001091A4062091A5063091A6066C197D09E7
:100AF0008E099F09061717072807390708F09ACFAC
:100B0000D6CF91919D938F5FA5CFCF92DF92EF9239
:100B1000FF920F931F93CF93DF93D0915A0681E0FA
:100B2000D13208F09CC0C09159060E9407046B01A5
:100B30007C018091A10681116CC082E08093A106A6
:100B400081E0809380068FEF80937F0610927E066F
:100B5000D0937D06A9E3B6E0EBE5F6E080E0D8139C
:100B60008DC010927C0680917C06CC0FC82BC09360
:100B70007C0680917B06813009F084C010927B0650
:100B80000E9407046B017C0180917C068093BB006E
:100B90008091A3069091A406A091A506B091A60607
:100BA000892B8A2B8B2BA1F00E9407040091A306AE
:100BB0001091A4062091A5063091A6066C197D0916
:100BC0008E099F09061717072807390708F442C03E
:100BD0008091BC0083FDD8CF85EC8093BC000E943F
:100BE00007046B017C018091A106823009F44CC09E
:100BF00080917F068F3F09F469C080917F06803223
:100C000009F466C080917F06803309F463C084E0F4
:100C100026C08091A3069091A406A091A506B0914C
:100C2000A606892B8A2B8B2B09F483CF0E940704FD
:100C30000091A3061091A4062091A5063091A60666
:100C40006C197D098E099F090617170728073907B0
:100C500008F06FCF8091A2060E94950485E0109263
:100C6000380610925A0610923706DF91CF911F91E5
:100C70000F91FF90EF90DF90CF9008959D91919309
:100C80008F5F6DCF85EEA9CF8091A3069091A406CA
:100C9000A091A506B091A606892B8A2B8B2B09F46F
:100CA000A2CF0E9407040091A3061091A4062091F0
:100CB000A5063091A6066C197D098E099F090617B5
:100CC00017072807390708F08ECFC4CF80E0C7CFB9
:100CD00082E0C5CF83E0C3CF0895E09136068091CE
:100CE0003506E81730F4F0E0EF57F94F808190E0D7
:100CF00008958FEF9FEF0895909136068091350605
:100D00002FEF3FEF981748F4E92FF0E0EF57F94F36
:100D1000208130E09F5F90933606C9010895CF92FD
:100D2000DF92EF92FF920F931F93CF93DF937C019B
:100D3000CB018A0120913706222389F0EB016B0158
:100D4000C40ED51ECC15DD0569F06991D701ED9172
:100D5000FC910190F081E02DC7011995F3CF642F2C
:100D60000E943904C801DF91CF911F910F91FF902C
:100D7000EF90DF90CF900895CF93DF931F92CDB780
:100D8000DEB76983209137062223F9F020915A06B5
:100D9000203258F021E030E0FC013383228390E0E0
:100DA00080E00F90DF91CF91089580913806E82F71
:100DB000F0E0E75CF94F998190838F5F809338066C
:100DC00080935A0681E090E0ECCF61E0CE0101967D
:100DD0000E943904F7CF682F81EE97E00C94BC068F
:100DE0008F929F92AF92BF92CF92DF92EF92FF923B
:100DF000CF93DF93EC01E62ED42EF52E8091ED07F4
:100E000091E090933706809359061092380610921D
:100E10005A068D2F90E00E94EB06CE0199270E9482
:100E2000EB06CD2DDF2DEC0EFD2EF11CEC16FD0694
:100E300031F0699181EE97E00E94BC06F7CF0E94E5
:100E400085050E9407044B015C018AE0C82ED12C65
:100E5000E12CF12C0E940704681979098A099B0981
:100E6000683E734081059105A8F321E0C21AD108BC
:100E7000E108F10888EE880E83E0981EA11CB11CE1
:100E8000C114D104E104F10429F7DF91CF91FF905F
:100E9000EF90DF90CF90BF90AF909F908F9008958C
:100EA0007F928F929F92AF92BF92CF92DF92EF92FA
:100EB000FF920F931F93CF93DF936C01C62F8A018C
:100EC000862E912CC4016EE170E00E943D31762E99
:100ED0007601D0E05801AC18BD08D71560F4A50123
:100EE0004E0D5F1D6EE1C7010E94F006DF5F8EE1CF
:100EF000E80EF11CF2CFC4016EE170E00E943D31BA
:100F0000C81BD0E0A8014C0F5D1F682FC6018C0FD5
:100F10009D1FDF91CF911F910F91FF90EF90DF9078
:100F2000CF90BF90AF909F908F907F900C94F006E1
:100F300090E080E0089590919502882349F0911106
:100F40000DC081E08093950261E089E20C948003FA
:100F5000992321F01092950260E0F7CF08950F9346
:100F60001F930E9407046093390470933A0480939E
:100F70003B0490933C0483E00E945703892B09F0C3
:100F8000A4C080919402882309F492C080919002B9
:100F900090919102A0919202B0919302892B8A2B99
:100FA0008B2B09F483C00E940704009190021091DA
:100FB00091022091920230919302601B710B820B7F
:100FC000930B609341047093420480934304909385
:100FD000440480918C0290918D02A0918E02B09178
:100FE0008F024497A105B10578F580914104909155
:100FF0004204A0914304B09144044091880250916E
:10100000890260918A0270918B02840F951FA61F3E
:10101000B71F8093880290938902A0938A02B093AD
:101020008B0280918C0290918D02A0918E02B091E2
:101030008F020196A11DB11D80938C0290938D02A9
:10104000A0938E02B0938F0280918C0290918D02BA
:10105000A0918E02B0918F024497A105B10530F1A5
:10106000609188027091890280918A0290918B022E
:1010700024E130E040E050E00E94513120934504EB
:1010800030934604409347045093480410928C02D6
:1010900010928D0210928E0210928F02109288028E
:1010A0001092890210928A0210928B02109294027E
:1010B0000E940704609390027093910280939202C1
:1010C000909393021F910F91089581E08093940271
:1010D000F9CF80912D0690912E06019690932E06C1
:1010E00080932D06E091AA04F091AB04EE0FFF1F50
:1010F000E45DFD4F208131812817390724F41092D7
:101100002E0610922D06089510922E0610922D068E
:101110001092AB041092AA041092300610922F067F
:1011200008950F931F930E940704609331047093F6
:101130003204809333049093340482E00E94570376
:10114000892B79F5809186028823F1F08091AC0497
:101150009091AD04A091AE04B091AF04892B8A2B7D
:101160008B2B81F00E9407040091AC041091AD0418
:101170002091AE043091AF04601B710B70934C044E
:1011800060934B04109286020E9407046093AC04A3
:101190007093AD048093AE049093AF041F910F91B0
:1011A000089581E080938602F9CF8FE10E94570372
:1011B00021E0892B09F020E0822F0895CF92DF9261
:1011C000FF920F931F93CF93DF93EC01062F6A01D9
:1011D0008091ED0791E09093370680935906109225
:1011E000380610925A068D2F90E00E94EB06CE0131
:1011F00099270E94EB060E948505602F8091ED07DC
:101200000E94B604F82E109236068093350610E040
:10121000D0E0C0E0C017D10771F080913606F81613
:1012200041F081EE97E00E947C06F601EC0FFD1F75
:1012300080832196EFCFDF91CF911F910F91FF9087
:10124000DF90CF900895FC0101900020E9F73197DD
:10125000AF01481B590BBC0184E497E00C94B60124
:101260008F929F92AF92BF920F931F93CF93DF9372
:10127000CDB7DEB7A1970FB6F894DEBF0FBECDBFD6
:1012800019A2423008F44AE08E010F5D1F4F842EF0
:10129000912CB12CA12CA50194010E945131E62F73
:1012A000B901CA01EA30F4F4E05DD801EE938D0192
:1012B000232B242B252B79F790E080E0109719F051
:1012C000CD010E942309A1960FB6F894DEBF0FBE90
:1012D000CDBFDF91CF911F910F91BF90AF909F90A5
:1012E0008F900895E95CE1CFCF92DF92EF92FF9269
:1012F000CF93DF936C01990FEE08FF08F7FE19C03A
:101300006DE284E497E00E945602EC01662777279D
:10131000CB016C197D098E099F094AE00E943009B2
:101320008C0F9D1FDF91CF91FF90EF90DF90CF90BA
:1013300008954AE0C701B601DF91CF91FF90EF9089
:10134000DF90CF900C9430090C942309CF93DF9356
:10135000EC0181E892E00E94A409CE01DF91CF91D7
:101360000C9474094F925F926F927F928F929F922A
:10137000AF92BF92CF92DF92EF92FF920F931F93A3
:10138000CF936B017C01742EAC019B010E94F7305E
:10139000882399F08AE692E0CF911F910F91FF90F8
:1013A000EF90DF90CF90BF90AF909F908F907F9005
:1013B0006F905F904F900C94230946015701E89479
:1013C000B7F82FEF3FEF4FE75FE7C501B4010E9489
:1013D000F73081110DC02FEF3FEF4FE75FE7C501F9
:1013E000B4010E944F2E18161CF48EE692E0D4CF62
:1013F0002FEF3FEF4FE75FE4C701B6010E94A23035
:1014000018161CF482E792E0C7CF2FEF3FEF4FE7AB
:101410005FECC701B6010E944F2E87FDF3CF20E09D
:1014200030E0A901C701B6010E944F2E10E000E094
:1014300087FF0AC06DE284E497E00E9456028C01A7
:10144000F7FAF094F7F8F094C0E060E070E080E024
:101450009FE37C1641F020E030E040E251E40E943E
:10146000FA2FCF5FF6CFA70196010E948E2F2B0196
:101470003C010E9473304B015C014AE00E9430093C
:101480007C01E00EF11ECC23C1F1C501B4010E9424
:10149000542E9B01AC01C301B2010E948D2F4B0160
:1014A0005C016EE284E497E00E945602E80EF91EA9
:1014B000C15018F120E030E040E251E4C501B40130
:1014C0000E94B52E2B013C010E9473304B01B12CC0
:1014D000A12C4AE0C501B4010E943009E80EF91EB2
:1014E000C501B4010E94542E9B01AC01C301B2019D
:1014F0000E948D2F4B015C01DBCFC701CF911F9163
:101500000F91FF90EF90DF90CF90BF90AF909F90A2
:101510008F907F906F905F904F90089585ED8093AE
:10152000BC008091A3069091A406A091A506B0915D
:10153000A6060796A11DB11D23E0B695A795979520
:1015400087952A95D1F72091BC0024FD03C0109205
:10155000A10608954091A3065091A4066091A506A6
:101560007091A606452B462B472B69F30097A105E2
:10157000B10541F025E32A95F1F700000197A10993
:10158000B109E1CF8091A2060C9495048F929F92AD
:10159000AF92BF92CF92DF92EF92FF920F931F9381
:1015A00047010E94FA2F0E94AF306B017C01A80115
:1015B000940160E070E080E89FE30E94FA2FA701A9
:1015C00096010E94B52E2FE03FEC4BE55BE30E94B5
:1015D0008E2F9B01AC0160E070E080E89FE30E94E9
:1015E000FA2F23E333E948E853E40E948D2F20E0EB
:1015F00030E048EC52E40E94B52E6B017C0120E003
:1016000030E0A9010E94A23020E030E040E05FE33A
:1016100087FD2DC0C701B6010E948E2F0E946C303D
:1016200024E630E040E050E00E947331CA01B90185
:101630000E94562E6B017C0120E030E046EC52EC1B
:101640000E944F2E87FF06C0C12CD12C86ECE82EBD
:1016500082ECF82EC701B6011F910F91FF90EF9019
:10166000DF90CF90BF90AF909F908F900895C7016B
:10167000B6010E948D2FD2CFCF93DF93CDB7DEB7C7
:10168000CA54D1090FB6F894DEBF0FBECDBF80910A
:10169000B604882309F4F2C081E69EE19A83898327
:1016A0001B821C821D821E824091DC055091DD054B
:1016B0006091DE057091DF054F83588769877A87CF
:1016C0004091D8055091D9056091DA057091DB05FC
:1016D0004B875C876D877E874091D0055091D105FF
:1016E0006091D2057091D3054F87588B698B7A8BA7
:1016F000209102062B8B2091CE053091CF053D8B9A
:101700002C8B20912A022E8B209128022F8B209146
:101710002602288F9A8F898F4091A6045091A704A2
:101720006091A8047091A9044B8F5C8F6D8F7E8FA0
:101730004091A2045091A3046091A4047091A50467
:101740004F8F58A369A37AA32091C8053091C9058A
:101750003CA32BA32091C6053091C7053EA32DA322
:1017600098A78FA340919E0450919F046091A0047C
:101770007091A10449A75AA76BA77CA79EA78DA724
:101780004091D4055091D5056091D6057091D7054B
:101790004FA758AB69AB7AAB9CAB8BAB8091010682
:1017A0008DAB809100068EAB809124029091250232
:1017B00098AF8FAB80912202909123029AAF89AFAC
:1017C00080912002909121029CAF8BAF80911E02EC
:1017D00090911F029EAF8DAF8091FE059091FF0505
:1017E00021969FAF8EAF21978091FC059091FD05CA
:1017F00023969FAF8EAF239780911C0290911D027C
:1018000025969FAF8EAF25978091F8059091F905A9
:1018100027969FAF8EAF27978091F6059091F70599
:1018200029969FAF8EAF299780911A0290911B0243
:101830002B969FAF8EAF2B97AE014F5F5F4F60E24D
:1018400090E080E00E945007AE014F5D5F4F60E284
:1018500080E290E00E945007AE014F5B5F4F6AE06C
:1018600080E490E00E945007C65BDF4F0FB6F8940B
:10187000DEBF0FBECDBFDF91CF91089580E197E02D
:101880000DCF2F923F924F925F926F927F928F92E5
:101890009F92AF92BF92CF92DF92EF92FF920F93FF
:1018A0001F93CF93DF93CDB7DEB762970FB6F8944F
:1018B000DEBF0FBECDBF8FB7F89420914B0430919F
:1018C0004C0430934A0420934904409145045091BC
:1018D000460460914704709148044091410450913E
:1018E0004204609143047091440440933D0450933A
:1018F0003E0460933F04709340044091390450913A
:101900003A0460913B0470913C0440933504509339
:101910003604609337047093380440913104509139
:101920003204609133047091340440932D04509339
:101930002E0460932F04709330048FBF2091EA052A
:101940003091EB053A8329832130310509F08FC4AA
:101950000E942C046093290470932A0480932B0422
:1019600090932C04109228040E94070400912D04E7
:1019700010912E0420912F0430913004601B710BC4
:10198000820B930B613472448F40910520F01092CA
:101990002304109222040E942C0400911E04109132
:1019A0001F042091200430912104601B710B820BD5
:1019B000930B6F3171058105910530F10E942C0464
:1019C00060931E0470931F0480932004909321045D
:1019D000209122043091230480911C0490911D04D5
:1019E0008217930728F4019690931D0480931C049A
:1019F00080911C0490911D042817390728F4019741
:101A000090931D0480931C0480911A0490911B04F0
:101A1000843191059CF4209118043091190440916F
:101A20001C0450911D04240F351F3093190420937A
:101A30001804019690931B0480931A0480911A0451
:101A400090911B044497A4F010921B0410921A0466
:101A5000809118049091190464E170E00E943D3176
:101A60007093F5056093F405109219041092180410
:101A70000E940704C0903504D0903604E0903704EB
:101A8000F09038046C197D098E099F096033754701
:101A90008105910568F580913D0490913E04A091E7
:101AA0003F04B09140048C019D010D5D154021095A
:101AB000310903351F4621053105D0F4BC01990FCA
:101AC000880B990B0E94562E9B01AC0160E074E2DA
:101AD00084E799E40E94FA2F2DEC3CEC4CEE51E4A3
:101AE0000E94B52E0E946C30709317046093160408
:101AF0000E9407046C197D098E099F0961347244A4
:101B00008F40910520F010921704109216040E9445
:101B10002C04209016043090170400919602109126
:101B200097022091980230919902601B710B820BF1
:101B3000930B6B3071058105910508F4C0C00E94BC
:101B40002C0460939602709397028093980290936E
:101B500099028091F2059091F3058215930508F0A2
:101B600053C09101281B390B283B3B4030F0885172
:101B70009C4F9093F3058093F2058091F20590912C
:101B8000F3059101281B390B203D374030F08C5074
:101B90009E4F9093F3058093F2058091F20590910A
:101BA000F3059101281B390B283E334030F08C5946
:101BB0009F4F9093F3058093F2058091F2059091E9
:101BC000F3059101281B390B243F314028F00A9678
:101BD0009093F3058093F2058091F2059091F305BF
:101BE0009101281B390B2A3F310528F00596909367
:101BF000F3058093F2058091F2059091F30501962B
:101C00009093F3058093F2058091F2059091F3058E
:101C10002816390608F053C09C0122193309283BC5
:101C20003B4030F0885E93409093F3058093F2053B
:101C30008091F2059091F3059C0122193309203D12
:101C4000374030F0845F91409093F3058093F20524
:101C50008091F2059091F3059C0122193309283EE9
:101C6000334030F0845691099093F3058093F20548
:101C70008091F2059091F3059C0122193309243FCC
:101C8000314028F00A979093F3058093F2058091F4
:101C9000F2059091F3059C01221933092A3F310581
:101CA00028F005979093F3058093F2058091F20553
:101CB0009091F30501979093F3058093F20580913D
:101CC000120490911304A0911404B091150484316E
:101CD0009105A105B10518F52091F2053091F305A4
:101CE00040910E0450910F04609110047091110402
:101CF000420F531F611D711D40930E0450930F043A
:101D000060931004709311040196A11DB11D80937E
:101D1000120490931304A0931404B09315048091BB
:101D2000120490911304A0911404B09115044497E7
:101D3000A105B10530F11092120410921304109213
:101D400014041092150460910E0470910F04809198
:101D500010049091110424E130E040E050E00E9432
:101D6000513120930A0430930B0440930C04509398
:101D70000D0410920E0410920F0410921004109291
:101D800011040E942C040091060410910704209174
:101D9000080430910904601B710B820B930B693EA0
:101DA00073408105910508F4A0C00E942C04609343
:101DB000060470930704809308049093090489E350
:101DC0000E94EA03BC01990F880B990B0E94562EC2
:101DD00023E333E343EA50E40E94B52E20E030ECE5
:101DE0004FE754E40E94FA2F9B01AC0163E373E3D5
:101DF00083EA90E40E94FA2F20E030E040E85FE3BD
:101E00000E948D2F20E030E04AEF54E40E94B52E6E
:101E1000E12CF12C0AE715E420E030E64AEE56E426
:101E20000E94C60A0E946C307093050460930404FB
:101E30008EE30E94EA03BC01990F880B990B0E9464
:101E4000562E23E333E343EA50E40E94B52E20E00C
:101E500030EC4FE754E40E94FA2F9B01AC0163E39E
:101E600073E383EA90E40E94FA2F20E030E040E838
:101E70005FE30E948D2F20E030E04AEF54E40E949F
:101E8000B52EE12C10E6F12E0AE615E420E030E450
:101E90004CE156E40E94C60A0E946C307093030421
:101EA000609302048AE30E94EA03BC01990F880B45
:101EB000990B0E94562E23EB3BE742EF5BE30E9417
:101EC000B52E20E038EC4BE656E40E94B52E20E01B
:101ED00030E14FE955E40E94FA2F6093FE037093BE
:101EE000FF0380930004909301040E94D508882387
:101EF00009F48AC081E40E94EA03BC01990F880BAF
:101F0000990B0E94562E23E333E343EA50E40E94E8
:101F1000B52E20E030EC4FE754E40E94FA2F9B01ED
:101F2000AC0163E373E383EA90E40E94FA2F20E0BC
:101F300030E040E85FE30E948D2F20E030E04BE787
:101F400054E40E94B52E6B017C0120E030E0A90131
:101F50000E94A23018160CF042C220E030EA4CE099
:101F600056E4C701B6010E944F2E87FF38C2C70151
:101F7000B6010E946C307093FD036093FC0382E411
:101F80000E94EA03BC01990F880B990B0E94562E00
:101F900023E333E343EA50E40E94B52E20E030EC23
:101FA0004FE754E40E94FA2F9B01AC0163E373E313
:101FB00083EA90E40E94FA2F20E030E040E85FE3FB
:101FC0000E948D2F20E030E04BE754E40E94B52EB4
:101FD0006B017C0120E030E0A9010E94A2301816BC
:101FE0000CF001C220E030EA4CE056E4C701B60133
:101FF0000E944F2E87FFF7C1C701B6010E946C30C7
:102000007093FB036093FA0380910A0490910B0490
:10201000A0910C04B0910D0489839A83AB83BC8397
:10202000853F9140A105B10508F451C22091F40506
:102030003091F5053E832D8337FD49C2B101032C54
:10204000000C880B990B0E94562E6B017C010E949C
:102050002C0400919C0210919D0220919E023091CF
:102060009F02AB01BC01401B510B620B730B8091B3
:102070001A0290911B02092E000CAA0BBB0B8417AD
:102080009507A607B70708F08FC080919A02909134
:102090009B029A8B898B0E942C0460939C02709304
:1020A0009D0280939E0290939F02AD81BE81BD01EF
:1020B000BB0F880B990B0E94562E9B01AC01C701E8
:1020C000B6010E94FA2F4B015C01E989FA89BF0130
:1020D000FF0F880B990B0E94562E2B013C01AC017F
:1020E0009B01C501B4010E94A23018161CF5298974
:1020F0003A89243F3140F4F4A3019201C501B401AF
:102100000E948D2F20E030E040EA51E40E94A2308E
:1021100018163CF489899A89059690939B028093BE
:102120009A0280919A0290919B02019690939B0251
:1021300080939A02A0919A02B0919B02BA8BA98BCC
:10214000BD01BB0F880B990B0E94562E2B013C0141
:10215000AC019B01C501B4010E944F2E87FF24C032
:10216000E989FA891E161F06FCF4A5019401C30132
:10217000B2010E948D2F20E030E040EA51E40E943D
:10218000A230181644F429893A8925503109309330
:102190009B0220939A0280919A0290919B02019750
:1021A00090939B0280939A02609128027091290279
:1021B000072E000C880B990B0E94562E4B015C01D8
:1021C00060912A0270912B02072E000C880B990B4C
:1021D0000E94562E9B01AC01C501B4010E94FA2F4A
:1021E0004B015C0125E33EE54AEC5FE3C701B60124
:1021F0000E94FA2F2B013C0100919A0210919B0240
:102200003FEF3F874FEF488B1B861C868AE78D8701
:1022100094E49E87A1E0B0E0BA8BA98BE989FA89A2
:10222000E130F10509F4E3C02BE13AEC4BEE5FE35A
:10223000E230F10509F4DFC020E030E040EC5FE37C
:10224000E330F10509F4DCC02BEA3AEA4AEA5FE33D
:10225000E430F10509F4D4C020E030E0A90135975D
:1022600009F0C9C02AE939E949E95FE3C9C08981B0
:102270009A81892B09F078CB0E942C046093240466
:102280007093250480932604909327040E942C04C5
:102290000091290410912A0420912B0430912C04E0
:1022A000601B710B820B930B6D3D75408105910591
:1022B00018F081E08093280480912804882309F491
:1022C00053CB6091490470914A04CB018C529140E8
:1022D0008533994EE0F490E080E00E94542E9B01FB
:1022E000AC0160E074E284E799E40E94FA2F23E3F2
:1022F00033E341E252E40E94FA2F26E03AE24FE053
:1023000050E40E94B52E0E946C307A836983E98183
:10231000FA81F0932304E0932204C090D005D0907A
:10232000D105E090D205F090D30520E030E0A9017E
:10233000C701B6010E94A2301816E4F429813A813F
:10234000B901330F880B990B0E94562EA7019601F5
:102350000E94B52E20E030E048EC52E40E94FA2FB3
:102360000E946C30A981BA81A60FB71FB0932304D5
:10237000A093220420E030E0A901C701B6010E9429
:102380004F2E87FFF1CAE0912204F0912304FA83D3
:10239000E983BF01FF0F880B990B0E94562E4B015A
:1023A0005C01A701960160E070E0CB010E948D2FD7
:1023B0009B01AC01C501B4010E94B52E20E030E0C4
:1023C00048EC52E40E94FA2F0E946C3029813A8135
:1023D000261B370B3093230420932204C5CAC12C3B
:1023E000D12C7601C4CDC12CD12C760105CE20E0B4
:1023F00030E040E250E489899A89069709F41CC5C7
:10240000C301B2010E94FA2FA50194010E94FA2F84
:102410002AED3FE049E450E40E94B52E25E236E083
:1024200041E25FE30E94B52E20E030E040E752E455
:102430000E94B52E22E03BE249EC54E40E94FA2FC0
:102440009B01AC01C701B6010E94FA2F0E946C30BB
:10245000061717070CF0F5C4601B710B072E000C54
:10246000880B990B0E94562E6F83788789879A87ED
:102470002B853C854D855E850E944F2E87FF0CC0C5
:10248000B989BF87EA89E88BFF81FB8728852C877C
:1024900039853D874A854E8789899A8901969A8B25
:1024A000898B079709F0BACE9F859093CA05A889B2
:1024B000A093CB058091C4059091C505ED81FE8167
:1024C0008E179F0724F4F093C505E093C405F9EE39
:1024D0002F16F3E03F066CF10E942C040091F603E6
:1024E0001091F7032091F8033091F903601B710BF1
:1024F000820B930B693E734081059105D0F00E94D9
:102500002C046093F6037093F7038093F803909381
:10251000F9038091F4039091F5038C3391054CF409
:1025200001968C33910509F491C49093F50380933F
:10253000F4030E942C040E94542E6B017C016091D4
:10254000F0037091F1038091F2039091F3030E94E4
:10255000542E9B01AC01C701B6010E948D2F6B0167
:102560007C01C092EC03D092ED03E092EE03F09276
:10257000EF0320E030E046E953E40E94A230181651
:102580000CF0FAC00E942C046093F0037093F103E6
:102590008093F2039093F3036091220470912304DB
:1025A000072E000C880B990B0E94562E20E030E07D
:1025B00041E655E40E94FA2FA70196010E94B52E2C
:1025C00020E030E04AE754E40E94FA2F6B017C01DE
:1025D0002091DC053091DD054091DE055091DF054D
:1025E0000E948E2F2B013C014092DC055092DD05AC
:1025F0006092DE057092DF052091D8053091D905F3
:102600004091DA055091DB05C701B6010E948E2F7B
:102610004B015C018092D8059092D905A092DA0511
:10262000B092DB052091E8033091E9034091EA0381
:102630005091EB03C701B6010E948E2F6B017C0104
:10264000C092E803D092E903E092EA03F092EB0330
:102650002091E4033091E5034091E6035091E703B4
:10266000C301B2010E948D2F2DEC3CEC4CEC5DE3DC
:102670000E94A23087FD0AC04092E4035092E50315
:102680006092E6037092E7030E943C0B2091E00306
:102690003091E1034091E2035091E303C501B4019D
:1026A0000E948D2F2DEC3CEC4CEC5DE30E94A2309F
:1026B00087FD0AC08092E0039092E103A092E203BA
:1026C000B092E3030E943C0B8090D4059090D50516
:1026D000A090D605B090D7052091DC033091DD03A2
:1026E0004091DE035091DF03C501B4010E948D2F9C
:1026F0002DEC3CEC4CEC5DE30E94A23087FD0AC05F
:102700008092DC039092DD03A092DE03B092DF039F
:102710000E943C0B2091D8033091D9034091DA03F9
:102720005091DB03C701B6010E948D2F20E030E0FD
:1027300040E85FE30E94A23087FD1EC0C092D8032C
:10274000D092D903E092DA03F092DB03A70196015D
:1027500060919A0470919B0480919C0490919D04D7
:102760000E948E2F6093D4057093D5058093D60573
:102770009093D7050E943C0B82E30E94570381305F
:10278000910509F08EC39093E7058093E60581E3F8
:102790000E9457038130910509F088C39093E505A5
:1027A0008093E40580E30E9457038130910509F08E
:1027B00082C39093E3058093E20587E20E9457036A
:1027C000892B09F07DC31092E9051092E80581E29A
:1027D0000E945703892B09F07AC381E090E090931F
:1027E000EB058093EA0588E30E94EA0397FD74C332
:1027F0009093D7038093D6038091D4039091D5030F
:10280000863491059CF42091D2033091D3034091FA
:10281000D6035091D703240F351F3093D303209351
:10282000D20301969093D5038093D4038091D4036F
:102830009091D5038634910544F01092D5031092FF
:10284000D4031092D3031092D20380911802909176
:1028500019028D399F4F81F48091D6039091D7034F
:1028600090931902809318029093070280930602B6
:1028700090930502809304020E942C040091CE03E1
:102880001091CF032091D0033091D103601B710BC5
:10289000820B930B613D77408105910508F4A2C13D
:1028A0000E942C046093CE037093CF038093D003D7
:1028B0009093D1032091D6033091D70380911802D1
:1028C00090911902821793072CF4019690931902A4
:1028D0008093180280910402909105028217930759
:1028E0002CF40196909305028093040280911802C3
:1028F00090911902281739072CF401979093190227
:1029000080931802809106029091070228173907D8
:1029100074F4019790930702809306028091040259
:1029200090910502019790930502809304026091B3
:102930001802709119026D35710508F0D2C2072E88
:10294000000C880B990B0E94562E20E030E040E2EC
:1029500051E40E94B52E9B01AC0160E070E184EA75
:1029600096E40E948D2F20E030E04AE754E40E9474
:10297000FA2F6093CA037093CB038093CC03909398
:10298000CD03C090CA03D090CB03E090CC03F0906D
:10299000CD038090D4059090D505A090D605B09039
:1029A000D70520E030E0A90160919E0470919F045A
:1029B0008091A0049091A1040E944F2E811110C01B
:1029C000C0929E04D0929F04E092A004F092A104D1
:1029D0008092A2049092A304A092A404B092A504B1
:1029E0004090A6045090A7046090A8047090A90499
:1029F000A7019601C301B2010E944F2E87FF1EC09E
:102A0000A3019201C701B6010E948D2F20E030E0A2
:102A100040E050E40E94A230181684F4C0929E0454
:102A2000D0929F04E092A004F092A1048092A204AC
:102A30009092A304A092A404B092A504C092A6040C
:102A4000D092A704E092A804F092A90480909E047A
:102A500090909F04A090A004B090A104C090CA03DD
:102A6000D090CB03E090CC03F090CD03A70196016A
:102A7000C501B4010E94A23018160CF0B3C0209119
:102A8000A2043091A3044091A4045091A504609144
:102A9000D4057091D5058091D6059091D7050E94F7
:102AA0008D2F2B013C01A7019601C501B4010E94A5
:102AB0008D2F9B01AC0165ED78E781E990E40E94E0
:102AC000FA2F9B01AC01C301B2010E94B52E4B014C
:102AD0005C0120E030E0A9010E94A23087FD82C0A5
:102AE00020E030E048EC52E4C501B4010E944F2ED2
:102AF00087FF78C08091C6039091C703A091C80357
:102B0000B091C9030B97A105B10580F01092C203E3
:102B10001092C3031092C4031092C5031092C6030F
:102B20001092C7031092C8031092C903C501B401E3
:102B30000E9473300091C2031091C3032091C4031B
:102B40003091C503600F711F821F931F6093C203F2
:102B50007093C3038093C4039093C5032091C6036D
:102B60003091C7034091C8035091C9032F5F3F4F75
:102B70004F4F5F4F2093C6033093C7034093C80362
:102B80005093C9030E94513149013093C9052093E4
:102B9000C80520E030E0A901C701B6010E94A230BB
:102BA000181604F520E030E040EB51E4C701B6010F
:102BB0000E944F2E1816B4F0B401990C880B990B93
:102BC0000E94562E25ED38E741E950E40E94FA2F85
:102BD000A70196010E94B52E0E946C307093C70524
:102BE0006093C6058091C0039091C103863491051E
:102BF0009CF42091BE033091BF0340910404509196
:102C00000504240F351F3093BF032093BE030196A4
:102C10009093C1038093C0038091C0039091C1033E
:102C200086349105A4F01092C1031092C0038091E4
:102C3000BE039091BF0366E470E00E943D31709343
:102C4000F1056093F0051092BF031092BE038091CE
:102C5000BC039091BD038A3A91059CF42091BA037C
:102C60003091BB034091020450910304240F351F9F
:102C70003093BB032093BA0301969093BD038093D6
:102C8000BC038091BC039091BD038A3A9105A4F0E6
:102C90001092BD031092BC038091BA039091BB03C4
:102CA0006AEA70E00E943D317093CD056093CC05D7
:102CB0001092BB031092BA030E94D508882309F42E
:102CC0009AC08091B8039091B9038A3A91050CF5A6
:102CD0000091FC031091FD03012E000C220B330B1D
:102CE0004091B4035091B5036091B6037091B7035E
:102CF000400F511F621F731F4093B4035093B503DD
:102D00006093B6037093B70301969093B9038093D1
:102D1000B8038091B8039091B9038A3A9105F4F011
:102D20001092B9031092B8036091B4037091B50387
:102D30008091B6039091B7032AEA30E040E050E07A
:102D40000E9451313093BF052093BE051092B40309
:102D50001092B5031092B6031092B7038091B2039C
:102D60009091B3038A3A91050CF50091FA03109102
:102D7000FB03012E000C220B330B4091AE0350914C
:102D8000AF036091B0037091B103400F511F621FF8
:102D9000731F4093AE035093AF036093B0037093DF
:102DA000B10301969093B3038093B2038091B20371
:102DB0009091B3038A3A9105F4F01092B303109204
:102DC000B2036091AE037091AF038091B003909114
:102DD000B1032AEA30E040E050E00E9451313093E4
:102DE000BD052093BC051092AE031092AF03109264
:102DF000B0031092B1038091F6059091F70500970A
:102E000009F0BAC189819A81AB81BC81853691056F
:102E1000A105B10508F4E9C18091EA059091EB059F
:102E2000019709F092C38091AD03882309F48DC303
:102E300081E00E949B07CBC12CEE34EC4EE85FE3AF
:102E4000DFCAD801A61BB70BBD0108CB1092F50352
:102E50001092F4038091C0059091C1058C339105C7
:102E60000CF067CB01968C33910529F09093C10546
:102E70008093C0055ECB1092C1051092C005809171
:102E8000C2059091C3050196843691052CF4909368
:102E9000C3058093C2054DCB1092C3051092C205A5
:102EA00048CB1092E7051092E60571CC1092E5052B
:102EB0001092E40577CC1092E3051092E2057DCCE8
:102EC00081E090E09093E9058093E80580CC109232
:102ED000EB051092EA0587CC1092D7031092D60327
:102EE0008BCCCB018E5591094B97C8F4072E000C63
:102EF000880B990B0E94562E20E030E04AEB52E4FA
:102F00000E948D2F20E030E04CE052E40E94B52E6C
:102F10009B01AC0160E070E48CE996E422CDCB012A
:102F20008A5791094A97C8F4072E000C880B990B11
:102F30000E94562E20E030E042EF52E40E948D2F96
:102F400020E030E044E152E40E94B52E9B01AC0148
:102F500060E070EA8CE896E404CDCB0185599109D4
:102F60004F97C8F4072E000C880B990B0E94562E21
:102F700020E030E044E153E40E948D2F20E030E077
:102F800048EF51E40E94B52E9B01AC0160E070ED6A
:102F900084E896E4E6CCCB01855B91094E97C8F4B2
:102FA000072E000C880B990B0E94562E20E030E073
:102FB00044E353E40E948D2F20E030E040E052E4EF
:102FC0000E94B52E9B01AC0160E070E68AE696E4B3
:102FD000C8CCCB01845D91094D97C8F4072E000C35
:102FE000880B990B0E94562E20E030E043E553E415
:102FF0000E948D2F20E030E044E052E40E94B52E84
:103000009B01AC0160E070EC8AE596E4AACCCB01B0
:10301000825F91098797C8F4072E000C880B990BE3
:103020000E94562E20E030E041E753E40E948D2FAD
:1030300020E030E048EC51E40E94B52E9B01AC0149
:1030400060E070E88BE396E48CCCCB018A51914030
:103050008697C8F4072E000C880B990B0E94562EF9
:1030600020E030E84CE853E40E948D2F20E030E06F
:1030700048EC51E40E94B52E9B01AC0160E070E485
:103080008CE196E46ECCCB01815491408E97C8F4CC
:10309000072E000C880B990B0E94562E20E030E082
:1030A00040EA53E40E948D2F20E030E048EA51E4EA
:1030B0000E94B52E9B01AC0160E070EA8CE096E4C2
:1030C00050CCCB0180579140CA97C8F4072E000C12
:1030D000880B990B0E94562E20E030E847EB53E412
:1030E0000E948D2F20E030E040E851E40E94B52E90
:1030F0009B01AC0160E070EC8AED95E432CCCB0131
:103100008B5A9140C697C8F4072E000C880B990B78
:103110000E94562E20E030E045ED53E40E948D2FB2
:1031200020E030E040E951E40E94B52E9B01AC0163
:1031300060E070E88BEB95E414CCCB01825E9140AB
:10314000489708F083CC072E000C880B990B0E943F
:10315000562E20E030E840EF53E40E948D2F20E00F
:1031600030E040E252E40E94B52E9B01AC0160E0E9
:1031700070E48CE995E4F5CB8130910509F06BC0E2
:1031800089819A81AB81BC8185369105A105B10504
:1031900060F18091EA059091EB050197C1F480916F
:1031A000AD038823A1F00E942C0400912404109107
:1031B00025042091260430912704601B710B820B9B
:1031C000930B61367A4E8105910508F031CE20913E
:1031D000F0053091F1058091260290912702281781
:1031E00039071CF081E00E949B078091EA059091CD
:1031F000EB05892B09F068C02091F0053091F105AD
:103200008091260290912702281739070CF05CC0A4
:1032100080E00E949B0789819A81AB81BC81853FB8
:103220009140A105B10508F45CC08091AD03811106
:1032300058C08091AC03811155C10E942C04609349
:10324000A8037093A9038093AA039093AB0381E032
:103250008093AC0346C08230910509F073C1898127
:103260009A81AB81BC8185369105A105B10508F431
:10327000BCCF8091EA059091EB05019709F0A7CFAB
:103280008091AD03882309F4A2CF8091F00590913D
:10329000F105C2970CF49BCFCBCD89819A81AB818C
:1032A000BC81853C9940A105B10508F44EC18091CF
:1032B000EA059091EB05019709F089CF8091AD0364
:1032C000882309F484CFB4CD89819A81AB81BC81F4
:1032D000883C9105A105B10508F09DCF80E00E94D2
:1032E0009B072091A6033091A7033A8329832634B4
:1032F00031050CF52091FE033091FF03409100044D
:10330000509101046091A2037091A3038091A403E2
:103310009091A5030E948E2F6093A2037093A30344
:103320008093A4039093A50389819A810196909339
:10333000A7038093A6038091A6039091A7038634E8
:10334000910514F11092A7031092A60320E030E03B
:103350004CE852E46091A2037091A3038091A4030E
:103360009091A5030E94FA2F6093EC057093ED05F0
:103370008093EE059093EF051092A2031092A303A1
:103380001092A4031092A5030E942C040091000245
:10339000109101022091020230910302601B710B17
:1033A000820B930B653F71408105910518F10E94D6
:1033B0002C046093000270930102809302029093A8
:1033C00003028FE30E94EA039093FB058093FA05C2
:1033D0002091F8053091F905821793070CF0A4C0ED
:1033E00080911C0290911D029093CF058093CE0591
:1033F0000E942C0487EA96E00E941402181619060F
:103400000CF057C087EA96E00E94F2012091A003D9
:103410003091A103F901EF55FD4F80832F5F3F4F9E
:103420003093A1032093A003E1EAF2E00190002091
:10343000E9F7CF010197329720812E3341F50297AA
:10344000DC018C91853219F51092A1031092A00332
:103450001FEFEDEBF4E0DF01212F1D922A95E9F734
:1034600061EA72E0CF010E94B631A1EAB2E01D929A
:103470001A95E9F78091A00281111BC081E0809329
:10348000A00283E090E09093E1058093E0058091B5
:10349000A0039091A1038E3F91055CF01092A103CF
:1034A0001092A003E1EAF2E08FEFDF011D928A950E
:1034B000E9F762960FB6F894DEBF0FBECDBFDF917D
:1034C000CF911F910F91FF90EF90DF90CF90BF9021
:1034D000AF909F908F907F906F905F904F903F90B4
:1034E0002F9008950E942C040091A8031091A90325
:1034F0002091AA033091AB03601B710B820B930BDD
:10350000613177428105910508F4EBCE0E942C04CD
:1035100060932404709325048093260490932704D9
:1035200081E08093AD03DDCE281739070CF062CF20
:10353000821B930B45970CF45DCF8091FC05909115
:10354000FD0552CF039709F4A8CE89819A81AB81FA
:10355000BC8185369105A105B10508F446CE37CE6C
:103560004F925F926F927F928F929F92AF92BF9293
:10357000CF92DF92EF92FF920F931F93CF93DF933F
:103580008091AA049091AB04892B29F580912D0696
:1035900090912E06FC01EE0FFF1FE45DFD4F208190
:1035A0003181232BC1F018161906ACF49093AB04AB
:1035B0008093AA0444E6489F9001499F300D11244E
:1035C0003093300620932F0610922E0610922D066F
:1035D00081E0809387028091870281112CC08091C5
:1035E0002F069091300620912D0630912E06820FE5
:1035F000931F863223E0920709F4E9C50CF07EC1DF
:10360000893F21E0920709F469C40CF08FC0823928
:1036100021E0920709F414C4E4F58D3221E0920709
:1036200009F402C42CF58130910509F4C3C3B4F444
:10363000892B09F48EC310928702DF91CF911F91DD
:103640000F91FF90EF90DF90CF90BF90AF909F9041
:103650008F907F906F905F904F900895823091058A
:1036600009F4D5C38C32914031F70E948408E3CF2E
:103670008F3221E0920709F453C70CF4DAC3803982
:1036800021E0920791F381399140A9F61092020648
:10369000D2CF873921E0920709F442C7A4F48439D4
:1036A00021E0920709F4D3C30CF4CEC3853921E09D
:1036B000920709F4D0C38639914009F0BCCF81E06C
:1036C00080930006B8CF863F21E0920709F4CBC370
:1036D000B4F4843F21E0920741F2853F914009F024
:1036E000AACF809111069091120601968330910520
:1036F0000CF0B4C390931206809311069CCF873FC1
:1037000021E0920709F4D3C3883F914009F093CF99
:1037100080910B0690910C0601968A3091050CF071
:10372000D8C390930C0680930B0685CF8D3B22E087
:10373000920709F4CAC4CCF58C3522E0920709F44B
:103740008BC414F5893522E0920709F45BC42CF48C
:103750008835924009F489CF6ECF8A3522E09207EE
:1037600009F462C48B35924009F065CF80911C0248
:1037700090911D020196893091050CF068C49093D8
:103780001D0280931C0257CF8E3522E0920709F468
:1037900089C40CF474C48F3522E0920709F4C0C6C2
:1037A0008C3B924009F461CF46CF803223E09207F0
:1037B00009F4D3C40CF06CC08F3B22E0920709F4EB
:1037C000A8C40CF494C4803C22E0920709F4B3C46A
:1037D000813C924009F02FCF809107069091080616
:1037E0002AE0289FB001299F700D1124072E000C9C
:1037F000880B990B0E94562E6B017C016091050687
:1038000070910606072E000C880B990B0E94562E0D
:103810009B01AC01C701B6010E948E2F6B017C0198
:103820006091030670910406072E000C880B990B1B
:103830000E94562E20E030E040E251E40E94FA2F30
:103840009B01AC01C701B6010E948E2F9B01AC0108
:103850002093D0053093D1054093D2055093D305E2
:103860008091090690910A06892B69F460E070E066
:10387000CB010E948D2F6093D0057093D10580936A
:10388000D2059093D3050E943C0B0E948408D3CEAE
:10389000833223E0920709F47CC4C4F4813223E02C
:1038A000920709F467C48232934009F0C4CE82E0E3
:1038B00090E09093CF058093CE059093FD05809383
:1038C000FC050E943C0B0E948408B5CE843223E0A4
:1038D000920709F46DC48532934009F0ACCE85E0BF
:1038E00090E09093CF058093CE059093FD05809353
:1038F000FC050E943C0B0E9484089DCE8E3424E07F
:10390000920709F4F9C40CF095C08B3823E09207B4
:1039100009F406C60CF042C0863823E0920709F489
:1039200083C4F4F4883223E0920709F46EC40CF4E3
:103930005DC4843823E0920709F497CE853893401C
:1039400009F079CE80912A0290912B028531910560
:103950000CF071CE019690932B0280932A026BCECD
:10396000883823E0920709F47BC40CF46BC48938CF
:1039700023E0920709F482C48A38934009F05BCEB1
:1039800080911A0290911B028B3091050CF453CE5A
:103990000A9790931B0280931A024DCE8C3E23E02F
:1039A000920709F496C4CCF4893E23E0920709F407
:1039B00074C42CF4883E934009F457CE3CCE8A3E22
:1039C00023E0920709F477C48B3E934009F033CE8D
:1039D0001092F7051092F6052ECE8F3E23E0920747
:1039E00009F49EC584F48D3E23E0920709F478C45F
:1039F0008E3E934009F01FCE83E090E09093F70550
:103A00008093F60518CE8C3424E0920709F42DCE6D
:103A10008D34944009F00FCE8091240290912502BC
:103A200001968A3091050CF062C490932502809330
:103A3000240201CE823B24E0920709F4EBC40CF08F
:103A400042C0833524E0920709F4A9C4F4F4803518
:103A500024E0920709F475C40CF461C4813524E0B4
:103A6000920709F481C48235944009F0E4CD809135
:103A700020029091210201978A3091050CF488C4AC
:103A80009093210280932002D6CD853524E09207C1
:103A900009F446C50CF497C4803B24E0920709F46E
:103AA000A6C4813B944009F0C6CD8091290690912F
:103AB0002A06893091050CF0AAC4019690932A0633
:103AC00080932906B8CD873B24E0920709F4E5C42A
:103AD000F4F4843B24E0920709F4BCC40CF4AAC4B7
:103AE000853B24E0920709F4C5C4863B944009F065
:103AF000A2CD80911F0690912006893091050CF08F
:103B0000C9C401969093200680931F0694CD8A3BEA
:103B100024E0920709F4E4C4BCF4883B24E0920753
:103B200009F4CBC4893B944009F085CD80911906F6
:103B300090911A06893091050CF0CFC401969093AC
:103B40001A068093190677CD8B3B24E0920709F47F
:103B5000D7C48C3B944009F06ECDA0912B06B09158
:103B60002C0660911F0670912006A617B70731F04A
:103B700081E090E09093140680931306C09029068C
:103B8000D0902A0640911D0650911E06C416D506F7
:103B900031F081E090E09093140680931306E0905A
:103BA0002706F090280620911B0630911C06E2168D
:103BB000F30631F081E090E09093140680931306B1
:103BC0000091250610912606A0901906B0901A06BD
:103BD0000A151B0531F081E090E090931406809364
:103BE0001306C0912306D09124068090170690906A
:103BF0001806C815D90531F081E090E090931406BD
:103C000080931306E0912106F0912206609015063C
:103C100070901606E615F70531F081E090E090937C
:103C200014068093130644244394512C109709F0F2
:103C3000412CC201C114D10409F40196E114F1042C
:103C400009F401960115110509F40196209709F46C
:103C50000196309709F40196672B09F40196452BDC
:103C600009F40196232B09F40196AB2809F4019677
:103C7000892851F4672841F40A9731F482E090E0F2
:103C8000909314068093130620EA36E841E050E052
:103C90000E949A3120E137E2C29E4001C39E900CFF
:103CA000D29E900C1124092C000CAA08BB08680DA8
:103CB000791D8A1D9B1D28EE33E0E29E6001E39E84
:103CC000D00CF29ED00C11240D2C000CEE08FF0835
:103CD0006C0D7D1D8E1D9F1D44E6409F9001419FF0
:103CE000300D11248901330F220B330B600F711F2C
:103CF000821F931F2AE02C9F80012D9F100D1124FD
:103D0000012E000C220B330B600F711F821F931FBB
:103D10008F01FF0F220B330B600F711F821F931F48
:103D20000E94562E6093D4057093D5058093D605D6
:103D30009093D70560939A0470939B0480939C049E
:103D400090939D041092B6040E943C0B0E9484083C
:103D500072CC8091E0059091E1052091A002222390
:103D600091F08330910529F41092E1051092E0055D
:103D700062CC8230910551F483E090E09093E105AC
:103D80008093E00558CC8230910571F38130910524
:103D900039F482E090E09093E1058093E0054BCC0C
:103DA000892B09F048CC81E090E09093E105809365
:103DB000E00541CC1092DC051092DD051092DE0585
:103DC0001092DF058091CA039091CB03A091CC03A0
:103DD000B091CD0380939E0490939F04A093A00480
:103DE000B093A1048091D4059091D505A091D605FA
:103DF000B091D7058093A2049093A304A093A40448
:103E0000B093A5040E943C0B0E94840814CC10922D
:103E1000D8051092D9051092DA051092DB050E94A0
:103E20003C0B0E94840807CC1092FF051092FE05FF
:103E300002CC81E090E09093FF058093FE05FBCBE0
:103E400081E080930206F7CB10920106F4CB81E06B
:103E500080930106F0CB10920006EDCB1092120673
:103E600010921106E8CB80910F06909110060196F2
:103E70008A309105BCF49093100680930F068091D0
:103E8000110690911206029709F0D5CB80910F068A
:103E90009091100604970CF4CECB1092100610925D
:103EA0000F06C9CB1092100610920F06E8CF809132
:103EB0000D0690910E060196863091052CF4909394
:103EC0000E0680930D06B7CB10920E0610920D06CB
:103ED000B2CB10920C0610920B06ADCB80910D0662
:103EE00090910E061AE0189F7001199FF00C112492
:103EF00060910B0670910C06E60EF71E809111067C
:103F000090911206189FE001199FD00D1124609125
:103F10000F0670911006C60FD71F0C2FD1E0D0935B
:103F2000370688E6809359061092380610925A0692
:103F300060E081EE97E00E94BC0660E081EE97E0D1
:103F40000E94BC068E2D612F0E943131682F660FB2
:103F5000680F660F6E0D81EE97E00E94BC06802F01
:103F6000612F0E943131682F660F680F660F6C0F4A
:103F700081EE97E00E94BC0660E081EE97E00E942F
:103F8000BC0664E081EE97E00E94BC0668E081EE2A
:103F900097E00E94BC0668E181EE97E00E94BC06B3
:103FA0000E948505D09337061092380610925A0663
:103FB0006FE081EE97E00E94BC060E94850561E0FB
:103FC00088E60E94B604109236068093350681EE8C
:103FD00097E00E947C06C82FD093370610923806CF
:103FE00010925A066FE081EE97E00E94BC066C2F9B
:103FF0006F7781EE97E00E94BC060E9485050E94C3
:10400000840819CB8091FC059091FD0501968930BB
:1040100091052CF49093FD058093FC050CCB109238
:10402000FD051092FC0507CB8091FC059091FD05E4
:10403000019797FD05C09093FD058093FC05FBCA91
:1040400088E090E09093FD058093FC05F4CA1092FF
:104050001D0210921C02EFCA80911C0290911D0259
:10406000019797FD05C090931D0280931C02E3CA3F
:1040700088E090E090931D0280931C02DCCA80913E
:10408000F8059091F9050A96853823E092072CF4FB
:104090009093F9058093F805CECA1092F905109215
:1040A000F805C9CA8091F8059091F9050A9797FD1E
:1040B00005C09093F9058093F805BDCA84E893E0A4
:1040C0009093F9058093F805B6CA809109069091FE
:1040D0000A060196823091052CF490930A0680938B
:1040E0000906A9CA10920A0610920906A4CA80916C
:1040F00007069091080601968A3091052CF490935A
:1041000008068093070697CA1092080610920706C1
:1041100092CA809105069091060601968A30910513
:104120002CF4909306068093050685CA1092060625
:104130001092050680CA80910306909104060196AC
:104140008A3091052CF4909304068093030673CA79
:1041500010920406109203066ECA1092CF051092B8
:10416000CE051092FD051092FC050E943C0B0E94AA
:10417000840861CA81E090E09093CF058093CE05DA
:104180009093FD058093FC050E943C0B0E948408DF
:1041900052CA83E090E09093CF058093CE05909330
:1041A000FD058093FC050E943C0B0E94840843CAD5
:1041B00084E090E09093CF058093CE059093FD0529
:1041C0008093FC050E943C0B0E94840834CA87E05F
:1041D00090E09093CF058093CE059093FD0580935A
:1041E000FC050E943C0B0E94840825CA86E090E0F2
:1041F0009093CF058093CE059093FD058093FC05A9
:104200000E943C0B0E94840816CA88E090E09093BC
:10421000CF058093CE059093FD058093FC050E9409
:104220003C0B0E94840807CA80912A0290912B02BD
:104230008B3091050CF4FFC9019790932B0280936A
:104240002A02F9C980912802909129028E339105A2
:104250000CF0F1C901969093290280932802EBC9D2
:104260008091280290912902843291050CF4E3C9CF
:1042700001979093290280932802DDC980911A0248
:1042800090911B02803921E092070CF0D4C90A9664
:1042900090931B0280931A02CEC9809126029091BE
:1042A0002702883791050CF0C6C901969093270222
:1042B00080932602C0C980912602909127028734FC
:1042C00091050CF4B8C901979093270280932602B8
:1042D000B2C981E090E09093F7058093F605ABC9F1
:1042E00082E090E09093F7058093F605A4C91092C0
:1042F0002502109224029FC98091240290912502E8
:10430000019797FD05C0909325028093240293C9DD
:1043100089E090E090932502809324028CC98091DB
:1043200022029091230201968A3091052CF49093F9
:104330002302809322027FC910922302109222024C
:104340007AC98091220290912302019797FD05C0BE
:1043500090932302809322026EC989E090E09093AB
:1043600023028093220267C980912002909121024A
:104370000196833391052CF49093210280932002BF
:104380005AC98AE090E0909321028093200253C999
:1043900082E390E090932102809320024CC98091A7
:1043A0001E0290911F020196833391052CF4909385
:1043B0001F0280931E023FC98AE090E090931F0283
:1043C00080931E0238C980911E0290911F020197AE
:1043D0008A3091052CF090931F0280931E022BC906
:1043E00082E390E090931F0280931E0224C9809183
:1043F0002B0690912C068930910534F40196909308
:104400002C0680932B0617C990E080E0F8CF90E04F
:1044100080E054CB80912706909128068930910541
:1044200034F40196909328068093270604C990E0FF
:1044300080E0F8CF8091250690912606893091057D
:1044400034F401969093260680932506F4C890E0F4
:1044500080E0F8CF80912306909124068930910561
:1044600034F401969093240680932306E4C890E0E8
:1044700080E0F8CF80912106909122068930910545
:1044800034F401969093220680932106D4C890E0DC
:1044900080E0F8CF90E080E035CB80911D069091D0
:1044A0001E068930910534F4019690931E06809380
:1044B0001D06C1C890E080E0F8CF80911B06909166
:1044C0001C068930910534F4019690931C06809364
:1044D0001B06B1C890E080E0F8CF90E080E02FCBE1
:1044E00080911706909118068930910534F4019651
:1044F00090931806809317069EC890E080E0F8CF4E
:1045000080911506909116068930910534F4019634
:1045100090931606809315068EC890E080E0F8CF41
:104520000E943C0B0E94840886C81F920F920FB60F
:104530000F9211240BB60F922F933F934F935F93DB
:104540006F937F938F939F93AF93BF93EF93FF935B
:1045500087EA96E00E943402FF91EF91BF91AF91FC
:104560009F918F917F916F915F914F913F912F918B
:104570000F900BBE0F900FBE0F901F9018951F92BB
:104580000F920FB60F9211240BB60F922F938F93A9
:104590009F93EF93FF93E091B706F091B806808167
:1045A000E091BD06F091BE0682FD1DC09081809114
:1045B000C0068F5F8F732091C106821741F0E09192
:1045C000C006F0E0E955F94F958F8093C006FF9142
:1045D000EF919F918F912F910F900BBE0F900FBE77
:1045E0000F901F9018958081F2CF1F920F920FB6F7
:1045F0000F9211240BB60F922F933F934F935F931B
:104600006F937F938F939F93AF93BF93EF93FF939A
:1046100084E497E00E943402FF91EF91BF91AF9143
:104620009F918F917F916F915F914F913F912F91CA
:104630000F900BBE0F900FBE0F901F9018951F92FA
:104640000F920FB60F9211240BB60F922F938F93E8
:104650009F93EF93FF93E0915407F091550780816A
:10466000E0915A07F0915B0782FD1DC09081809117
:104670005D078F5F8F7320915E07821741F0E09195
:104680005D07F0E0EC5BF84F958F80935D07FF913D
:10469000EF919F918F912F910F900BBE0F900FBEB6
:1046A0000F901F9018958081F2CF1F920F920FB636
:1046B0000F9211242F933F938F939F93AF93BF93A8
:1046C0008091920490919304A0919404B0919504E8
:1046D0003091910423E0230F2D3758F50196A11D49
:1046E000B11D209391048093920490939304A0931E
:1046F0009404B09395048091960490919704A091AE
:104700009804B09199040196A11DB11D809396045F
:1047100090939704A0939804B0939904BF91AF919C
:104720009F918F913F912F910F900FBE0F901F90EF
:10473000189526E8230F0296A11DB11DD2CF1F9216
:104740000F920FB60F9211240BB60F922F933F9337
:104750004F935F936F937F938F939F93AF93BF9389
:10476000EF93FF93E0911602F09117021995FF91D4
:10477000EF91BF91AF919F918F917F916F915F91D9
:104780004F913F912F910F900BBE0F900FBE0F9046
:104790001F9018951F920F920FB60F9211240BB60F
:1047A0000F922F933F934F935F936F937F938F93CA
:1047B0009F93AF93BF93EF93FF93E0911402F09117
:1047C00015021995FF91EF91BF91AF919F918F9134
:1047D0007F916F915F914F913F912F910F900BBE01
:1047E0000F900FBE0F901F9018951F920F920FB64B
:1047F0000F9211240BB60F922F933F934F935F9319
:104800006F937F938F939F93AF93BF93EF93FF9398
:10481000E0910A02F0910B021995FF91EF91BF917F
:10482000AF919F918F917F916F915F914F913F9148
:104830002F910F900BBE0F900FBE0F901F901895E9
:104840001F920F920FB60F9211240BB60F922F9357
:104850003F934F935F936F937F938F939F93AF9308
:10486000BF93EF93FF93E0910802F091090219952D
:10487000FF91EF91BF91AF919F918F917F916F9138
:104880005F914F913F912F910F900BBE0F900FBEF4
:104890000F901F9018951F920F920FB60F92112430
:1048A0000BB60F922F933F934F935F936F937F932A
:1048B0008F939F93AF93BF93EF93FF93E091120277
:1048C000F09113021995FF91EF91BF91AF919F91D4
:1048D0008F917F916F915F914F913F912F910F90A9
:1048E0000BBE0F900FBE0F901F9018951F920F9246
:1048F0000FB60F9211240BB60F922F933F934F9345
:104900005F936F937F938F939F93AF93BF93EF9337
:10491000FF93E0911002F09111021995FF91EF9130
:10492000BF91AF919F918F917F916F915F914F91C7
:104930003F912F910F900BBE0F900FBE0F901F90C5
:1049400018951F920F920FB60F9211240BB60F926B
:104950002F933F934F935F936F937F938F939F9387
:10496000AF93BF93EF93FF93E0910E02F0910F028C
:104970001995FF91EF91BF91AF919F918F917F9189
:104980006F915F914F913F912F910F900BBE0F90C0
:104990000FBE0F901F9018951F920F920FB60F9297
:1049A00011240BB60F922F933F934F935F936F9306
:1049B0007F938F939F93AF93BF93EF93FF93E09178
:1049C0000C02F0910D021995FF91EF91BF91AF91FB
:1049D0009F918F917F916F915F914F913F912F9117
:1049E0000F900BBE0F900FBE0F901F9018951F9247
:1049F0000F920FB60F9211240BB60F922F933F9385
:104A00004F935F936F937F938F939F93AF93BF93D6
:104A1000EF93FF938091B900887F803609F44DC0F1
:104A200008F040C0883209F4A9C028F5803109F4A3
:104A30009DC0C8F4882309F4FBC0883009F496C0EF
:104A4000FF91EF91BF91AF919F918F917F916F9166
:104A50005F914F913F912F910F900BBE0F900FBE22
:104A60000F901F901895883109F488C0803241F763
:104A700080937F0614C0803409F49DC040F48033D5
:104A8000B9F38833E9F680937F0685ECB0C08035B2
:104A900009F485C0883509F496C0883489F60E94E7
:104AA0008E0ACECF883909F48CC038F5883729F0C2
:104AB00050F4883611F0803719F683E08093A10610
:104AC0001092900457C0883809F47BC0803919F0DF
:104AD000803809F0B5CF80919004803208F071C021
:104AE000E091900481E08E0F809390048091BB0050
:104AF000F0E0E059FB4F80833DC0803B39F0E0F4AB
:104B0000803A09F479C0883A09F09ACF84E080931A
:104B1000A10610926F0410926E04E0913306F0919A
:104B20003406199580916E0481110FC081E0809345
:104B30006E0410924E0409C0803C09F4A6CF883C54
:104B400009F4A3CF883B09F07BCFE0916F0481E0AB
:104B50008E0F80936F04F0E0E25BFB4F80818093C7
:104B6000BB0090916F0480916E0429C080917C06F7
:104B70008093BB0085EC8093BC0062CF90917E0651
:104B800080917D06981758F5E0917E0681E08E0FA2
:104B900080937E06F0E0E55AF94F8081E9CFE091FD
:104BA0007E0681E08E0F80937E068091BB00F0E050
:104BB000E55AF94F808390917E0680917D06981783
:104BC000C8F285E8D8CFE0917E0681E08E0F809311
:104BD0007E068091BB00F0E0E55AF94F808380911A
:104BE000800681115CCF81E080937B0684EA80930C
:104BF000BC001092A10624CF85EC8093BC001092DB
:104C0000A10680919004803230F4E0919004F0E0AD
:104C1000E059FB4F10826091900470E0E091310602
:104C2000F091320680E794E019951092900408CF35
:104C300010927F0634CFE7EAF6E01382128288EE04
:104C400093E0A0E0B0E084839583A683B7832AE451
:104C500032E03183208345ED50E05587448744EDB1
:104C600050E05787468740ED50E0518B408B41ED37
:104C700050E0538B428B42ED50E0558B448B46ED18
:104C800050E0578B468B118E128E138E148EE4E4F7
:104C9000F7E01382128284839583A683B7833183DE
:104CA000208325EC30E03587248724EC30E03787FB
:104CB000268720EC30E0318B208B21EC30E0338BE9
:104CC000228B22EC30E0358B248B26EC30E0378BC6
:104CD000268B118E128E138E148EE1EEF7E0138266
:104CE000128284839583A683B7838CE592E09183B7
:104CF000808387E58093ED070895CF93DF93CDB749
:104D0000DEB7CA55D1090FB6F894DEBF0FBECDBFCE
:104D1000789484B5826084BD84B5816084BD85B596
:104D2000826085BD85B5816085BD80916E008160A2
:104D300080936E0010928100809181008260809348
:104D4000810080918100816080938100809180004A
:104D50008160809380008091B10084608093B10075
:104D60008091B00081608093B0008091910082605A
:104D70008093910080919100816080939100809157
:104D800090008160809390008091A1008260809368
:104D9000A1008091A10081608093A1008091A0007A
:104DA00081608093A0008091210182608093210125
:104DB0008091210181608093210180912001816097
:104DC0008093200180917A00846080937A008091A2
:104DD0007A00826080937A0080917A00816080936B
:104DE0007A0080917A00806880937A001092C100E6
:104DF000EDEBF4E08FEFDF011D928A95E9F7E0918A
:104E00005407F091550722E02083E0915007F0917C
:104E100051071082E0915207F091530780E180839F
:104E200010925C07E0915807F091590796E0908343
:104E3000E0915607F0915707808180618083E0916F
:104E40005607F0915707808188608083E09156076C
:104E5000F0915707808180688083E0915607F09138
:104E6000570780818F7D8083E091B706F091B80667
:104E70002083E091B306F091B4061082E091B5066C
:104E8000F091B6068FEC80831092BF06E091BB06CE
:104E9000F091BC069083E091B906F091BA0680814A
:104EA00080618083E091B906F091BA0680818860C4
:104EB0008083E091B906F091BA0680818068808392
:104EC000E091B906F091BA0680818F7D808360E021
:104ED00082E00E94AE0360E083E00E94AE0360E0E7
:104EE00088E30E94AE0360E089E30E94AE0360E0C5
:104EF0008AE30E94AE0360E087E20E94AE0360E0B6
:104F000081E20E94AE0360E082E30E94AE0360E0B3
:104F100081E30E94AE0360E080E30E94AE0360E0A4
:104F20008BE20E94AE0360E08CE20E94AE0361E07F
:104F300089E20E94AE0362E08FE10E94AE0360E06E
:104F400081E40E94AE0360E082E40E94AE0360E070
:104F500089E20E9480030E947E040E947E040E94D7
:104F60007E041092AC041092AD041092AE04109224
:104F7000AF0481E998E09093090280930802809140
:104F80006A008C7F816080936A00EC9A8FEA97E0D8
:104F900090930B0280930A0280916A00837F846061
:104FA00080936A00ED9AAE014F5F5F4F8AE5FA0188
:104FB00011928A95E9F760E290E080E00E94DE08B5
:104FC000AE014F5D5F4F60E280E290E00E94DE083C
:104FD000AE014F5B5F4F6AE080E490E00E94DE0824
:104FE00009811A814B815C816D817E818F819885D9
:104FF000A985BA858093DC059093DD05A093DE0535
:10500000B093DF058B859C85AD85BE858093D805E3
:105010009093D905A093DA05B093DB058F85988925
:10502000A989BA898093D0059093D105A093D20520
:10503000B093D3058B89809302068C899D899093C8
:10504000CF058093CE058E8995EF980F943328F481
:1050500090E090932B0280932A028F8995EF980F0E
:10506000943328F490E09093290280932802888D4D
:1050700090E09093270280932602898D9A8D0817DD
:10508000190709F09CC08B8D9C8DAD8DBE8D8093D2
:10509000A6049093A704A093A804B093A9048F8DAD
:1050A00098A1A9A1BAA18093A2049093A304A0936C
:1050B000A404B093A5048BA19CA19093C9058093EF
:1050C000C8058DA19EA19093C7058093C6058FA1A9
:1050D00098A50817190709F072C089A59AA5ABA56C
:1050E000BCA580939E0490939F04A093A004B093CA
:1050F000A1048DA59EA50817190709F0F0C38FA577
:1051000098A9A9A9BAA98093D4059093D505A0938D
:10511000D605B093D7058BA99CA90817190709F0E4
:105120004EC08DA9809301068EA9809300068FA999
:1051300098AD909325028093240289AD9AAD909307
:105140002302809322028BAD9CAD90932102809329
:1051500020028DAD9EAD90931F0280931E0221967A
:105160008EAD9FAD21979093FF058093FE0523960A
:105170008EAD9FAD23979093FD058093FC052596FA
:105180008EAD9FAD259790931D0280931C022796AC
:105190008EAD9FAD27979093F9058093F8052996DA
:1051A0008EAD9FAD29979093F7058093F6052B96CA
:1051B0008EAD9FAD2B9790931B0280931A02809126
:1051C000D4059091D505A091D605B091D7058093CF
:1051D0009A0490939B04A0939C04B0939D04003187
:1051E000174009F089C380912402909125020A9703
:1051F00030F082E090E09093250280932402809129
:105200002202909123020A9730F084E090E090937C
:1052100023028093220280912002909121020A971A
:10522000899730F084E190E09093210280932002EE
:1052300080911E0290911F020A97899730F084E1B5
:1052400090E090931F0280931E028091FE05909142
:10525000FF05029720F01092FF051092FE05809145
:10526000FC059091FD05099720F01092FD05109224
:10527000FC0580911C0290911D02099730F086E098
:1052800090E090931D0280931C028091F80590910C
:10529000F9058538934020F01092F9051092F80531
:1052A0008091F6059091F705049720F01092F7058C
:1052B0001092F60580911A0290911B020A97873886
:1052C000914030F088EC90E090931B0280931A029A
:1052D000CC24C394F0EB8F2EF4E09F2EA8E67A2E18
:1052E0008BE20E9457030197A9F48CE20E945703B6
:1052F000019781F48091BC048111A9C3C092BC04C0
:105300000E942C046093B8047093B9048093BA048B
:105310009093BB048BE20E945703019779F480912C
:10532000B50481110BC0C092B5048091FE05909127
:10533000FF05892B09F0AEC30E9469088CE20E9428
:105340005703019779F48091B40481110BC0C09286
:10535000B4048091FE059091FF05892B09F09DC34F
:105360000E94B01A0E942C040091B0041091B10464
:105370002091B2043091B304601B710B820B930B2C
:105380006739710581059105E0F00E942C04609356
:10539000B0047093B1048093B2049093B3048BE291
:1053A0000E945703892B31F41092B5041092BC046B
:1053B0001092B7048CE20E945703892B11F41092CB
:1053C000B40480912F069091300620912D063091E3
:1053D0002E06820F931F892B09F06BC30E94410C8C
:1053E0000E94D508A82EB12CC0923706709259069B
:1053F0001092380610925A0660E081EE97E00E9403
:10540000BC060E94850567E088E60E94B6041092FB
:1054100036068093350681EE97E00E947C068F77F2
:10542000282F30E094E0359527959A95E1F7922F53
:10543000990F990FF22EF91AFF0CF80E81EE97E0F2
:105440000E947C069C0144E0359527954A95E1F73A
:105450002F703327922F990F990F122F191B110FAD
:10546000180F81EE97E00E947C069C0154E0359570
:1054700027955A95E1F72F703327922F990F990F9F
:10548000022F091B000F080F81EE97E00E947C0697
:1054900081EE97E00E947C069C0164E0359527959B
:1054A0006A95E1F72F703327922F990F990FE22E0B
:1054B000E91AEE0CE80E81EE97E00E947C069C0152
:1054C00074E0359527957A95E1F72F703327922F61
:1054D000990F990FD22ED91ADD0CD80E81EE97E0D4
:1054E0000E947C069C01E4E035952795EA95E1F75A
:1054F0002F703327922F990F990F291B220F820F9C
:105500008983DA82EB820C831D83FE8286E792E038
:105510000E94A4096091F4057091F505072E000C16
:10552000880B990B20910206222351F00E94542EE1
:105530002AED3EEF4DEC5FE30E94B52E0E947330E2
:10554000882799274AE00E94300981E892E00E946A
:10555000A4096091F2057091F30590E080E04AE0C3
:105560000E94300981E892E00E94A4098091F00530
:105570009091F1050E94740981E892E00E94A409CB
:105580006091EC057091ED058091EE059091EF052D
:1055900042E00E94B20981E892E00E94A409602FD3
:1055A00070E090E080E04AE00E94300981E892E0FB
:1055B0000E94A409612F70E090E080E04AE00E9420
:1055C000300981E892E00E94A4098091180290912C
:1055D00019020E94740981E892E00E94A409809156
:1055E000EA059091EB050E94740981E892E00E941F
:1055F000A4098091E8059091E9050E94740981E869
:1056000092E00E94A4098091E6059091E7050E942E
:10561000740981E892E00E94A4098091E4059091C8
:10562000E5050E94740981E892E00E94A409809136
:10563000E2059091E3050E94740981E892E00E94DE
:10564000A40920912F063091300680912D0690916B
:105650002E06820F931F0E94740981E892E00E9437
:10566000A4098091E0059091E1050E94740981E808
:1056700092E00E94A4096091DC057091DD058091A3
:10568000DE059091DF0520910206222331F02AEDFC
:105690003EEF4DEC5FE30E94B52E42E00E94B2095E
:1056A00081E892E00E94A4096091D8057091D90523
:1056B0008091DA059091DB0520910206222331F0DA
:1056C0002AED3EEF4DEC5FE30E94B52E42E00E94D2
:1056D000B20981E892E00E94A4096091D40570911A
:1056E000D5058091D6059091D705209102062223F9
:1056F00031F02AED3EEF4DEC5FE30E94B52E42E023
:105700000E94B20981E892E00E94A40980910206F9
:10571000882309F4C5C189E792E00E94A40981E8C1
:1057200092E00E94A4096091D0057091D10580910A
:10573000D2059091D30542E00E94B20981E892E03F
:105740000E94A4098091CE059091CF050E94740912
:1057500081E892E00E94A4098091CC059091CD054A
:105760000E94740981E892E00E94A4098091CA0510
:105770009091CB050E94740981E892E00E94A409EF
:105780008091C8059091C9050E94740981E892E052
:105790000E94A4098091C6059091C7050E947409D2
:1057A00081E892E00E94A4096091C4057091C5054A
:1057B000072E000C880B990B20910206222351F032
:1057C0000E94542E2AED3EEF4DEC5FE30E94B52E71
:1057D0000E947330882799274AE00E94300981E8A7
:1057E00092E00E94A4098091C2059091C3050E9495
:1057F000740981E892E00E94A4098091C00590910B
:10580000C1050E94740981E892E00E94A409C501C3
:105810000E94740981E892E00E94A4098091BE056B
:105820009091BF050E94740981E892E00E94A4094A
:105830008091BC059091BD050E94740981E892E0B9
:105840000E94A40980910106882309F42CC181E0FB
:1058500090E00E94740981E892E00E94A40980917E
:105860000006882309F422C181E090E00E947409B7
:1058700081E892E00E94A40980912402909125027F
:105880000E94740981E892E00E94A409809122029A
:10589000909123020E94740981E892E00E94A40979
:1058A00080912002909121020E94740981E892E087
:1058B0000E94A40980911E0290911F020E94740907
:1058C00081E892E00E94A4098DEB94E00E94A40973
:1058D0008DE792E00E94A4090E94C30201CDCB0192
:1058E000BA010E94542E6093D4057093D50580931D
:1058F000D6059093D70563CC1092D4051092D505A8
:105900001092D6051092D70510929A0410929B041B
:1059100010929C0410929D041092DC051092DD05FB
:105920001092DE051092DF051092D8051092D9056D
:105930001092DA051092DB051092D0051092D10575
:105940001092D2051092D305109202061092010611
:10595000109200061092CF051092CE0584E690E0DA
:10596000909327028093260280E190E090932B028F
:1059700080932A028CE290E090932902809328027F
:105980001092A6041092A7041092A8041092A904E1
:105990001092A2041092A3041092A4041092A504E1
:1059A0001092C9051092C8051092C7051092C6053D
:1059B00010929E0410929F041092A0041092A104D1
:1059C00082E090E0909325028093240284E090E0AE
:1059D000909323028093220284E190E0909321022D
:1059E0008093200290931F0280931E021092FF0565
:1059F0001092FE051092FD051092FC0586E090E0E5
:105A000090931D0280931C021092FB051092FA05E0
:105A10001092F9051092F8051092F7051092F6050C
:105A200088EC90E090931B0280931A028CE090E047
:105A30009093AB048093AA0480EB94E0909330069B
:105A400080932F0610922E0610922D0641CC0E94B4
:105A50002C040091B8041091B9042091BA0430913B
:105A6000BB04601B710B820B930B69357B41810575
:105A7000910508F44FCC8091B70481114BCCC092B2
:105A8000B704C092B6040E943C0B90922E068092FE
:105A90002D0640CC0E94B01A51CC0E94690862CCFD
:105AA0008BE792E03ACE90E080E0D3CE90E080E0C9
:105AB000DDCE0E94410C80E892E00E94A409209172
:105AC0002F063091300680912D0690912E06820F80
:105AD000931F0E94740980912B0690912C060E94BE
